:100000000C9435000C945D000C945D000C945D0024
:100010000C945D000C945D000C945D000C945D00EC
:100020000C945D000C945D000C945D000C945D00DC
:100030000C945D000C945D000C945D000C945D00CC
:100040000C9491000C945D000C944B010C945D0099
:100050000C945D000C945D000C945D000C945D00AC
:100060000C945D000C945D00940211241FBECFEF30
:10007000D4E0DEBFCDBF11E0A0E0B1E0ECEAF8E0F3
:1000800002C005900D92A031B107D9F711E0A0E1AF
:10009000B1E001C01D92A43BB107E1F710E0CAE650
:1000A000D0E004C02297FE010E945004C836D10758
:1000B000C9F70E948A000C9454040C9400000F931A
:1000C0001F9301EA11E0C80160E071E00E9405039E
:1000D0000E94D900409110015091110160911201CC
:1000E00070911301C8010E94C003C8010E940D0352
:1000F00068EE73E080E090E00E94E7001F910F91AE
:10010000089581EA91E040E855E260E070E00E94E5
:10011000880108950E9411010E9481000E945F00E1
:10012000FDCF1F920F920FB60F9211242F933F9382
:100130008F939F93AF93BF93809118019091190172
:10014000A0911A01B0911B0130911C010196A11DD3
:10015000B11D232F2D5F2D3720F02D570196A11DA6
:10016000B11D20931C018093180190931901A09355
:100170001A01B0931B018091140190911501A09177
:100180001601B09117010196A11DB11D80931401B4
:1001900090931501A0931601B0931701BF91AF91F1
:1001A0009F918F913F912F910F900FBE0F901F90B5
:1001B00018958FB7F894209118013091190140914A
:1001C0001A0150911B018FBFB901CA010895EF9226
:1001D000FF920F931F937B018C018FB7F89440918E
:1001E00018015091190160911A0170911B018FBF84
:1001F0002FB7F8948091180190911901A0911A01DC
:10020000B0911B012FBF841B950BA60BB70BE816F3
:10021000F9060A071B0760F71F910F91FF90EF90F7
:100220000895789484B5826084BD84B5816084BD6E
:1002300085B5826085BD85B5816085BDEEE6F0E05F
:10024000808181608083E1E8F0E08081826080834A
:10025000808181608083E0E8F0E08081816080833C
:10026000E1EBF0E0808184608083E0EBF0E080816E
:1002700081608083EAE7F0E0808184608083808110
:1002800082608083808181608083808180688083B8
:100290001092C10008951F920F920FB60F92112471
:1002A0002F933F934F935F936F937F938F939F937E
:1002B000AF93BF93EF93FF934091C600E0919D01F0
:1002C000F0919E01CF01019660E870E00E94EA0380
:1002D0009C0180919F019091A0012817390739F066
:1002E000E35EFE4F408330939E0120939D01FF917A
:1002F000EF91BF91AF919F918F917F916F915F919E
:100300004F913F912F910F900FBE0F901F90189516
:100310005F926F927F928F929F92AF92BF92CF9295
:10032000DF92EF92FF920F931F93CF93DF93EC0135
:100330003A014B01413482E458078FE0680780E0BE
:1003400078070CF07FC060E874E88EE190E0A401CB
:1003500093010E941F042150304040405040CA0188
:10036000B90122E030E040E050E00E941F04590152
:100370006A01A6019501209530954095509594E02D
:10038000220F331F441F551F9A95D1F760E074E286
:1003900084EF90E00E941F04CA01B9012FEF30E002
:1003A00040E050E00E94CB03A40193010E941F048F
:1003B000C90181509F4F181619061CF4522E5A94E9
:1003C00003C055245394521A60E079E08DE390E025
:1003D000A40193010E941F0421503040404050402E
:1003E000CA01B90122E030E040E050E00E941F0461
:1003F000209530954095509583E0220F331F441F80
:10040000551F8A95D1F760E074E284EF90E00E9476
:100410001F04CA01B9012FEF30E040E050E00E9414
:10042000CB03A40193010E941F04C90181509F4F77
:10043000181619061CF4822F815002C081E0821B1D
:10044000851500F5E885F98581E090E00A8802C00D
:10045000880F991F0A94E2F7808360E079E08DE3CA
:1004600090E0A40193010E941F04215030404040BD
:100470005040CA01B90122E030E040E050E00E9463
:100480001F0404C0E885F98510829501EC81FD8187
:100490003083EE81FF812083EA85FB85208141E066
:1004A00050E0CA010E8402C0880F991F0A94E2F737
:1004B000282B2083EA85FB852081CA010F8402C096
:1004C000880F991F0A94E2F7282B2083EA85FB8581
:1004D0008081088802C0440F551F0A94E2F7842BDC
:1004E0008083DF91CF911F910F91FF90EF90DF906C
:1004F000CF90BF90AF909F908F907F906F905F90C4
:100500000895FC01A085B18521898C9190E0022E8F
:1005100002C0959587950A94E2F780FFF6CF048490
:10052000F585E02D608308958AE091E09093A20123
:100530008093A1018DE191E09093A4018093A301A8
:1005400085EC90E09093A6018093A50184EC90E067
:100550009093A8018093A70180EC90E09093AA016A
:100560008093A90181EC90E09093AC018093AB0162
:1005700086EC90E09093AE018093AD0184E080938F
:10058000AF0183E08093B00187E08093B10185E003
:100590008093B20181E08093B30108950F931F937C
:1005A000CF93DF938C01EB0109C02196D801ED9127
:1005B000FC910190F081E02DC801099568816623C6
:1005C000A1F7DF91CF911F910F910895EF92FF92C4
:1005D0000F931F93CF93DF938C017B01EA010CC033
:1005E000D7016D917D01D801ED91FC910190F081D1
:1005F000E02DC80109952197209791F7DF91CF91C0
:100600001F910F91FF90EF900895DC01ED91FC9107
:100610000280F381E02D099508950F931F938C01BB
:10062000DC01ED91FC910190F081E02D6DE00995E8
:10063000D801ED91FC910190F081E02DC8016AE0B4
:1006400009951F910F9108952F923F924F925F92BB
:100650006F927F928F929F92AF92BF92CF92DF92D2
:10066000EF92FF920F931F93DF93CF93CDB7DEB737
:10067000A0970FB6F894DEBF0FBECDBF1C016A0174
:100680007B01411551056105710549F4DC01ED91CE
:10069000FC910190F081E02D60E3099554C088241D
:1006A00099245401422E55246624772401E010E059
:1006B0000C0F1D1F080D191DC701B601A3019201E2
:1006C0000E94FD03F80160830894811C911CA11C09
:1006D000B11CC701B601A30192010E94FD03C9012B
:1006E000DA016C017D01C114D104E104F104F1F6D9
:1006F00081E0E82EF12CEC0EFD1EE80CF91C3E0109
:100700000894611C711CD501C4010197A109B109AC
:100710006C01C818D90814C0F601EE0DFF1D6081E8
:100720006A3010F4605D01C0695CD101ED91FC910B
:100730000190F081E02DC10109950894E108F108CC
:100740006E147F0449F7A0960FB6F894DEBF0FBE73
:10075000CDBFCF91DF911F910F91FF90EF90DF9070
:10076000CF90BF90AF909F908F907F906F905F9051
:100770004F903F902F9008952AE00E9424030895FF
:100780000F931F938C010E94BC03C8010E940D03AC
:100790001F910F910895629FD001739FF001829F76
:1007A000E00DF11D649FE00DF11D929FF00D839F00
:1007B000F00D749FF00D659FF00D9927729FB00D9D
:1007C000E11DF91F639FB00DE11DF91FBD01CF01B0
:1007D0001124089597FB092E07260AD077FD04D02F
:1007E00049D006D000201AF4709561957F4F089586
:1007F000F6F7909581959F4F0895A1E21A2EAA1BB6
:10080000BB1BFD010DC0AA1FBB1FEE1FFF1FA217C0
:10081000B307E407F50720F0A21BB30BE40BF50BBD
:10082000661F771F881F991F1A9469F76095709546
:10083000809590959B01AC01BD01CF01089597FB78
:10084000092E05260ED057FD04D0D7DF0AD0001C94
:1008500038F450954095309521953F4F4F4F5F4F5D
:100860000895F6F790958095709561957F4F8F4F1D
:100870009F4F0895AA1BBB1B51E107C0AA1FBB1FB6
:10088000A617B70710F0A61BB70B881F991F5A951C
:10089000A9F780959095BC01CD010895EE0FFF1F3B
:0C08A0000590F491E02D0994F894FFCF2E
:1008AC0054696D652000000000008102CE02E60252
:00000001FF
