:100000000C9435000C945D000C945D000C945D0024
:100010000C945D000C945D000C945D000C945D00EC
:100020000C945D000C945D000C945D000C945D00DC
:100030000C945D000C945D000C945D000C945D00CC
:100040000C9425010C945D000C94DF010C945D0070
:100050000C945D000C945D000C945D000C945D00AC
:100060000C945D000C945D00280311241FBECFEF9B
:10007000D4E0DEBFCDBF11E0A0E0B1E0EAE4FAE0F9
:1000800002C005900D92A634B107D9F711E0A6E49D
:10009000B1E001C01D92AA3FB107E1F710E0CAE646
:1000A000D0E004C02297FE010E941F05C836D10788
:1000B000C9F70E941E010C9423050C9400000E94B5
:1000C0006D016093460170934701809348019093BE
:1000D000490120914A0130914B01621B730B7093CF
:1000E0005301609352012091540130915501621BDC
:1000F000730B709357016093560120913A01309130
:100100003B0126173707C4F50E946D0160934E012D
:1001100070934F01809350019093510187EE91E0CD
:1001200060E071E00E94B80387EE91E062E071E068
:100130000E949903609158017091590187EE91E0F6
:100140000E94820487EE91E062E171E00E949903CF
:10015000609156017091570187EE91E00E948204F0
:1001600087EE91E063E271E00E94B80387EE91E0D0
:1001700060E071E00E9499038091460190914701EF
:10018000A0914801B091490120914E0130914F0159
:100190004091500150915101821B930BA40BB50B60
:1001A00081519742A040B040C0F0609158017091D9
:1001B000590187EE91E00E948A0480914601909156
:1001C0004701A0914801B091490180934E0190935D
:1001D0004F01A0935001B093510180915201909131
:1001E0005301909355018093540180914601909161
:1001F0004701A0914801B091490180934A01909331
:100200004B01A0934C01B0934D0180915801909106
:1002100059010196909359018093580164E670E06A
:1002200080E090E00E947B01089587EE91E040E835
:1002300055E260E070E00E941C0208950E94A50152
:100240000E9415010E945F00FDCF1F920F920FB612
:100250000F9211242F933F938F939F93AF93BF934C
:1002600080915E0190915F01A0916001B091610168
:10027000309162010196A11DB11D232F2D5F2D37F5
:1002800020F02D570196A11DB11D2093620180938E
:100290005E0190935F01A0936001B0936101809132
:1002A0005A0190915B01A0915C01B0915D010196B2
:1002B000A11DB11D80935A0190935B01A0935C0135
:1002C000B0935D01BF91AF919F918F913F912F911D
:1002D0000F900FBE0F901F9018958FB7F894209134
:1002E0005E0130915F0140916001509161018FBFCB
:1002F000B901CA010895EF92FF920F931F937B01FA
:100300008C018FB7F89440915E0150915F0160912C
:100310006001709161018FBF2FB7F89480915E01E9
:1003200090915F01A0916001B09161012FBF841B8A
:10033000950BA60BB70BE816F9060A071B0760F723
:100340001F910F91FF90EF900895789484B582608B
:1003500084BD84B5816084BD85B5826085BD85B569
:10036000816085BDEEE6F0E0808181608083E1E818
:10037000F0E0808182608083808181608083E0E81A
:10038000F0E0808181608083E1EBF0E08081846037
:100390008083E0EBF0E0808181608083EAE7F0E039
:1003A000808184608083808182608083808181609D
:1003B00080838081806880831092C10008951F929D
:1003C0000F920FB60F9211242F933F934F935F9389
:1003D0006F937F938F939F93AF93BF93EF93FF930D
:1003E0004091C600E091E301F091E401CF01019654
:1003F00060E870E00E94B9049C018091E501909151
:10040000E6012817390739F0ED59FE4F4083309344
:10041000E4012093E301FF91EF91BF91AF919F9190
:100420008F917F916F915F914F913F912F910F909D
:100430000FBE0F901F9018955F926F927F928F92D0
:100440009F92AF92BF92CF92DF92EF92FF920F9363
:100450001F93CF93DF93EC013A014B01413482E4C7
:1004600058078FE0680780E078070CF07FC060E8ED
:1004700074E88EE190E0A40193010E94EE04215003
:10048000304040405040CA01B90122E030E040E035
:1004900050E00E94EE0459016A01A60195012095E1
:1004A00030954095509594E0220F331F441F551FFF
:1004B0009A95D1F760E074E284EF90E00E94EE0438
:1004C000CA01B9012FEF30E040E050E00E949A04E9
:1004D000A40193010E94EE04C90181509F4F181698
:1004E00019061CF4522E5A9403C055245394521AE0
:1004F00060E079E08DE390E0A40193010E94EE04B6
:100500002150304040405040CA01B90122E030E063
:1005100040E050E00E94EE042095309540955095C3
:1005200083E0220F331F441F551F8A95D1F760E0E7
:1005300074E284EF90E00E94EE04CA01B9012FEF4B
:1005400030E040E050E00E949A04A40193010E9430
:10055000EE04C90181509F4F181619061CF4822F12
:10056000815002C081E0821B851500F5E885F98580
:1005700081E090E00A8802C0880F991F0A94E2F790
:10058000808360E079E08DE390E0A40193010E9414
:10059000EE042150304040405040CA01B90122E0F1
:1005A00030E040E050E00E94EE0404C0E885F985A8
:1005B00010829501EC81FD813083EE81FF812083E3
:1005C000EA85FB85208141E050E0CA010E8402C02B
:1005D000880F991F0A94E2F7282B2083EA85FB8570
:1005E0002081CA010F8402C0880F991F0A94E2F784
:1005F000282B2083EA85FB858081088802C0440F70
:10060000551F0A94E2F7842B8083DF91CF911F91CD
:100610000F91FF90EF90DF90CF90BF90AF909F90A1
:100620008F907F906F905F900895FC01A085B185B9
:1006300021898C9190E0022E02C0959587950A94AD
:10064000E2F780FFF6CF0484F585E02D60830895FE
:1006500080E491E09093E8018093E70183E691E0E4
:100660009093EA018093E90185EC90E09093EC018E
:100670008093EB0184EC90E09093EE018093ED0188
:1006800080EC90E09093F0018093EF0181EC90E09A
:100690009093F2018093F10186EC90E09093F40145
:1006A0008093F30184E08093F50183E08093F60169
:1006B00087E08093F70185E08093F80181E08093E3
:1006C000F90108950F931F93CF93DF938C01EB01F2
:1006D00009C02196D801ED91FC910190F081E02DA7
:1006E000C801099568816623A1F7DF91CF911F9119
:1006F0000F910895EF92FF920F931F93CF93DF9383
:100700008C017B01EA010CC0D7016D917D01D801FC
:10071000ED91FC910190F081E02DC80109952197A0
:10072000209791F7DF91CF911F910F91FF90EF905C
:100730000895DC01ED91FC910280F381E02D099593
:1007400008950F931F938C01DC01ED91FC910190B2
:10075000F081E02D6DE00995D801ED91FC910190BB
:10076000F081E02DC8016AE009951F910F9108956D
:100770000F931F938C010E949903C8010E94A1034B
:100780001F910F9108952F923F924F925F926F9217
:100790007F928F929F92AF92BF92CF92DF92EF9211
:1007A000FF920F931F93DF93CF93CDB7DEB7A09740
:1007B0000FB6F894DEBF0FBECDBF1C016A017B01EE
:1007C000411551056105710549F4DC01ED91FC917C
:1007D0000190F081E02D60E3099554C088249924AC
:1007E0005401422E55246624772401E010E00C0FBA
:1007F0001D1F080D191DC701B601A30192010E941A
:10080000CC04F80160830894811C911CA11CB11CCC
:10081000C701B601A30192010E94CC04C901DA010B
:100820006C017D01C114D104E104F104F1F681E011
:10083000E82EF12CEC0EFD1EE80CF91C3E0108948C
:10084000611C711CD501C4010197A109B1096C019A
:10085000C818D90814C0F601EE0DFF1D60816A307A
:1008600010F4605D01C0695CD101ED91FC910190D3
:10087000F081E02DC10109950894E108F1086E149A
:100880007F0449F7A0960FB6F894DEBF0FBECDBF28
:10089000CF91DF911F910F91FF90EF90DF90CF905C
:1008A000BF90AF909F908F907F906F905F904F9090
:1008B0003F902F900895EF92FF920F931F93CF9345
:1008C000DF93EC017A018B0177FF0FC0E881F9819A
:1008D0000190F081E02D6DE2099510950095F0945E
:1008E000E094E11CF11C011D111DCE01B801A7010E
:1008F0002AE00E94C303DF91CF911F910F91FF90D7
:10090000EF900895AB01662757FD6095762F0E9402
:100910005B0408950F931F938C01AB01662757FD6D
:100920006095762F0E945B04C8010E94A1031F916D
:100930000F910895629FD001739FF001829FE00D97
:10094000F11D649FE00DF11D929FF00D839FF00D4E
:10095000749FF00D659FF00D9927729FB00DE11DFA
:10096000F91F639FB00DE11DF91FBD01CF011124D7
:10097000089597FB092E07260AD077FD04D049D0A9
:1009800006D000201AF4709561957F4F0895F6F710
:10099000909581959F4F0895A1E21A2EAA1BBB1B2B
:1009A000FD010DC0AA1FBB1FEE1FFF1FA217B3073B
:1009B000E407F50720F0A21BB30BE40BF50B661F51
:1009C000771F881F991F1A9469F760957095809515
:1009D00090959B01AC01BD01CF01089597FB092EB5
:1009E00005260ED057FD04D0D7DF0AD0001C38F4FE
:1009F00050954095309521953F4F4F4F5F4F08954B
:100A0000F6F790958095709561957F4F8F4F9F4F2A
:100A10000895AA1BBB1B51E107C0AA1FBB1FA61745
:100A2000B70710F0A61BB70B881F991F5A95A9F797
:100A300080959095BC01CD010895EE0FFF1F0590A4
:0A0A4000F491E02D0994F894FFCF23
:100A4A007C00496E206C6F6F70206E756D626572E6
:100A5A0020002061206469666665726E6365206F96
:100A6A00662000206D696C6C697365636F6E6473D0
:100A7A00206F6363757265642E0001000000000038
:060A8A00150362037A036C
:00000001FF
