:100000000C9462000C948A000C948A000C948A0070
:100010000C948A000C948A000C948A000C948A0038
:100020000C948A000C948A000C948A000C948A0028
:100030000C948A000C948A000C948A000C948A0018
:100040000C942E020C948A000C9435030C948A00B4
:100050000C948A000C948A000C948A000C948A00F8
:100060000C948A000C948A000000000024002700F1
:100070002A0000000000250028002B0000000000DE
:1000800023002600290004040404040404040202DA
:100090000202020203030303030301020408102007
:1000A0004080010204081020010204081020000012
:1000B0000007000201000003040600000000000029
:1000C00000007E0411241FBECFEFD4E0DEBFCDBF01
:1000D00011E0A0E0B1E0E4EEFDE002C005900D9279
:1000E000A035B107D9F712E0A0E5B1E001C01D923B
:1000F000A830B107E1F710E0C4ECD0E004C02297CB
:10010000FE010E94B506C23CD107C9F70E94270232
:100110000C94F0060C940000A0E0B0E0E2E9F0E0FE
:100120000C94C106EC01A880B980CA80DB80A114C0
:10013000B104C104D10441F484E2A82E89EDB82EA3
:100140008BE5C82E87E0D82EC601B5012DE133EF2F
:1001500041E050E00E94840627EA31E440E050E0AC
:100160000E9430067B018C01C601B5012DE133EF01
:1001700041E050E00E948406CA01B9012CEE34EF40
:100180004FEF5FEF0E9430066E0D7F1D801F911FA5
:1001900097FF04C061507040804090486883798325
:1001A0008A839B839B01AC015F77B901CA01CDB7FC
:1001B000DEB7EAE00C94DD060E948C0008958AE325
:1001C00091E00E948C00089560933A0170933B0186
:1001D00080933C0190933D0108950E9476026093C4
:1001E00050017093510180935201909353012091DB
:1001F000540130915501621B730B70935D01609344
:100200005C0120915E0130915F01621B730B709362
:1002100061016093600120913E0130913F012617FA
:100220003707C4F50E947602609358017093590114
:1002300080935A0190935B0185EF91E060E071E05B
:100240000E940E0585EF91E062E071E00E94EF04EC
:10025000609162017091630185EF91E00E94D80581
:1002600085EF91E062E171E00E94EF04609160012E
:100270007091610185EF91E00E94D80585EF91E0D2
:1002800063E271E00E940E0585EF91E060E071E0AD
:100290000E94EF048091500190915101A091520170
:1002A000B0915301209158013091590140915A0168
:1002B00050915B01821B930BA40BB50B81519742AC
:1002C000A040B040C0F0609162017091630185EF81
:1002D00091E00E94E0058091500190915101A09120
:1002E0005201B09153018093580190935901A0930A
:1002F0005A01B0935B0180915C0190915D019093F4
:100300005F0180935E018091500190915101A09115
:100310005201B09153018093540190935501A093E1
:100320005601B0935701809162019091630101964B
:10033000909363018093620162E370E080E090E05B
:1003400026E930E040E050E00E941206609364012C
:1003500070936501809366019093670180914001DD
:1003600061E00E94E8028091440160E00E94E8029E
:100370008091420160E00E94E80260916401709106
:10038000650180916601909167010E94840268E294
:1003900070E080E090E024E630E040E050E00E9431
:1003A00012066093640170936501809366019093D7
:1003B00067018091400160E00E94E8028091440161
:1003C00061E00E94E8028091420160E00E94E80240
:1003D000609164017091650180916601909167015F
:1003E0000E94840262E370E080E090E026E930E061
:1003F00040E050E00E941206609364017093650132
:1004000080936601909367018091400160E00E94B3
:10041000E8028091440160E00E94E802809142017C
:1004200061E00E94E8026091640170916501809131
:100430006601909167010E948402089585EF91E022
:1004400040E855E260E070E00E94720308950E9467
:10045000AE020E941E020E94ED00FDCF1F920F927D
:100460000FB60F9211242F933F938F939F93AF93C7
:10047000BF9380916C0190916D01A0916E01B0913C
:100480006F01309170010196A11DB11D232F2D5FC9
:100490002D3720F02D570196A11DB11D209370011D
:1004A00080936C0190936D01A0936E01B0936F01E6
:1004B0008091680190916901A0916A01B0916B01EE
:1004C0000196A11DB11D8093680190936901A093CD
:1004D0006A01B0936B01BF91AF919F918F913F9152
:1004E0002F910F900FBE0F901F9018958FB7F89413
:1004F00020916C0130916D0140916E0150916F011E
:100500008FBFB901CA010895EF92FF920F931F9315
:100510007B018C018FB7F89440916C0150916D0173
:1005200060916E0170916F018FBF2FB7F894809129
:100530006C0190916D01A0916E01B0916F012FBF80
:10054000841B950BA60BB70BE816F9060A071B07C9
:1005500060F71F910F91FF90EF900895789484B504
:10056000826084BD84B5816084BD85B5826085BDAF
:1005700085B5816085BDEEE6F0E080818160808395
:10058000E1E8F0E080818260808380818160808307
:10059000E0E8F0E0808181608083E1EBF0E0808141
:1005A00084608083E0EBF0E0808181608083EAE713
:1005B000F0E080818460808380818260808380819C
:1005C000816080838081806880831092C10008955B
:1005D000482F50E0CA0182559F4FFC012491CA0167
:1005E00086569F4FFC0194914A575F4FFA01349110
:1005F0003323D1F1222331F1233021F48091800083
:100600008F7705C0243031F4809180008F7D8093F6
:10061000800018C0213019F484B58F7704C02230CF
:1006200021F484B58F7D84BD0DC0263021F48091E6
:10063000B0008F7705C0273029F48091B0008F7DFE
:100640008093B000E32FF0E0EE0FFF1FEE58FF4F56
:10065000A591B491662329F48C91909589238C936C
:1006600008958C91892B8C9308951F920F920FB649
:100670000F9211242F933F934F935F936F937F9328
:100680008F939F93AF93BF93EF93FF934091C600D7
:10069000E091F101F091F201CF01019660E870E084
:1006A0000E944F069C018091F3019091F40128175C
:1006B000390739F0EF58FE4F40833093F201209311
:1006C000F101FF91EF91BF91AF919F918F917F9138
:1006D0006F915F914F913F912F910F900FBE0F90AF
:1006E0001F9018955F926F927F928F929F92AF9218
:1006F000BF92CF92DF92EF92FF920F931F93CF930F
:10070000DF93EC013A014B01413482E458078FE05A
:10071000680780E078070CF07FC060E874E88EE13D
:1007200090E0A40193010E94840621503040404093
:100730005040CA01B90122E030E040E050E00E94A0
:10074000840659016A01A6019501209530954095CE
:10075000509594E0220F331F441F551F9A95D1F7EF
:1007600060E074E284EF90E00E948406CA01B9015F
:100770002FEF30E040E050E00E943006A4019301EA
:100780000E948406C90181509F4F181619061CF457
:10079000522E5A9403C055245394521A60E079E0C3
:1007A0008DE390E0A40193010E9484062150304023
:1007B00040405040CA01B90122E030E040E050E042
:1007C0000E948406209530954095509583E0220F35
:1007D000331F441F551F8A95D1F760E074E284EF00
:1007E00090E00E948406CA01B9012FEF30E040E09A
:1007F00050E00E943006A40193010E948406C901C2
:1008000081509F4F181619061CF4822F815002C088
:1008100081E0821B851500F5E885F98581E090E08F
:100820000A8802C0880F991F0A94E2F7808360E06B
:1008300079E08DE390E0A40193010E9484062150A9
:10084000304040405040CA01B90122E030E040E071
:1008500050E00E94840604C0E885F9851082950165
:10086000EC81FD813083EE81FF812083EA85FB8569
:10087000208141E050E0CA010E8402C0880F991F18
:100880000A94E2F7282B2083EA85FB852081CA01A0
:100890000F8402C0880F991F0A94E2F7282B208347
:1008A000EA85FB858081088802C0440F551F0A94A1
:1008B000E2F7842B8083DF91CF911F910F91FF90FE
:1008C000EF90DF90CF90BF90AF909F908F907F90F0
:1008D0006F905F900895FC01A085B18521898C916E
:1008E00090E0022E02C0959587950A94E2F780FF6A
:1008F000F6CF0484F585E02D608308958AE491E0C5
:100900009093F6018093F50181E791E09093F801CF
:100910008093F70185EC90E09093FA018093F901C0
:1009200084EC90E09093FC018093FB0180EC90E0DC
:100930009093FE018093FD0181EC90E09093000282
:100940008093FF0186EC90E0909302028093010275
:1009500084E08093030283E08093040287E0809325
:10096000050285E08093060281E0809307020895E6
:100970000F931F93CF93DF938C01EB0109C0219656
:10098000D801ED91FC910190F081E02DC80109950D
:1009900068816623A1F7DF91CF911F910F91089590
:1009A000EF92FF920F931F93CF93DF938C017B0104
:1009B000EA010CC0D7016D917D01D801ED91FC9148
:1009C0000190F081E02DC80109952197209791F7BA
:1009D000DF91CF911F910F91FF90EF900895DC016F
:1009E000ED91FC910280F381E02D099508950F931C
:1009F0001F938C01DC01ED91FC910190F081E02DC1
:100A00006DE00995D801ED91FC910190F081E02D08
:100A1000C8016AE009951F910F9108950F931F93E4
:100A20008C010E94EF04C8010E94F7041F910F91EE
:100A300008952F923F924F925F926F927F928F9282
:100A40009F92AF92BF92CF92DF92EF92FF920F935D
:100A50001F93DF93CF93CDB7DEB7A0970FB6F8946F
:100A6000DEBF0FBECDBF1C016A017B0141155105E0
:100A70006105710549F4DC01ED91FC910190F08173
:100A8000E02D60E3099554C0882499245401422E36
:100A900055246624772401E010E00C0F1D1F080D7B
:100AA000191DC701B601A30192010E946206F80157
:100AB00060830894811C911CA11CB11CC701B60164
:100AC000A30192010E946206C901DA016C017D0155
:100AD000C114D104E104F104F1F681E0E82EF12C17
:100AE000EC0EFD1EE80CF91C3E010894611C711C03
:100AF000D501C4010197A109B1096C01C818D90831
:100B000014C0F601EE0DFF1D60816A3010F4605DC7
:100B100001C0695CD101ED91FC910190F081E02D63
:100B2000C10109950894E108F1086E147F0449F7A2
:100B3000A0960FB6F894DEBF0FBECDBFCF91DF9168
:100B40001F910F91FF90EF90DF90CF90BF90AF90EB
:100B50009F908F907F906F905F904F903F902F90DD
:100B60000895EF92FF920F931F93CF93DF93EC01C1
:100B70007A018B0177FF0FC0E881F9810190F08144
:100B8000E02D6DE2099510950095F094E094E11C3C
:100B9000F11C011D111DCE01B801A7012AE00E9420
:100BA0001905DF91CF911F910F91FF90EF9008955C
:100BB000AB01662757FD6095762F0E94B105089519
:100BC0000F931F938C01AB01662757FD6095762F1D
:100BD0000E94B105C8010E94F7041F910F9108956A
:100BE000EF92FF920F931F937B018C0161157105AA
:100BF0008105910529F420E030E040E050E00BC091
:100C00000E94DF00A80197010E948406AC01CB017D
:100C1000DA019C01AD01B901CA011F910F91FF904A
:100C2000EF900895EF92FF920F931F937B018C0139
:100C3000621773078407950764F4261B370B480B6C
:100C4000590BCA01B9010E94F005E60EF71E081FF4
:100C5000191FB701C8011F910F91FF90EF900895E0
:100C6000629FD001739FF001829FE00DF11D649F90
:100C7000E00DF11D929FF00D839FF00D749FF00D1C
:100C8000659FF00D9927729FB00DE11DF91F639FBD
:100C9000B00DE11DF91FBD01CF011124089597FB8F
:100CA000092E07260AD077FD04D049D006D00020AF
:100CB0001AF4709561957F4F0895F6F79095819598
:100CC0009F4F0895A1E21A2EAA1BBB1BFD010DC068
:100CD000AA1FBB1FEE1FFF1FA217B307E407F507EC
:100CE00020F0A21BB30BE40BF50B661F771F881FC8
:100CF000991F1A9469F760957095809590959B015E
:100D0000AC01BD01CF01089597FB092E05260ED039
:100D100057FD04D0D7DF0AD0001C38F45095409519
:100D2000309521953F4F4F4F5F4F0895F6F79095BF
:100D30008095709561957F4F8F4F9F4F0895AA1BA7
:100D4000BB1B51E107C0AA1FBB1FA617B70710F0B6
:100D5000A61BB70B881F991F5A95A9F780959095E8
:100D6000BC01CD010895EE0FFF1F0590F491E02D19
:100D700009942F923F924F925F926F927F928F923F
:100D80009F92AF92BF92CF92DF92EF92FF920F931A
:100D90001F93CF93DF93CDB7DEB7CA1BDB0B0FB624
:100DA000F894DEBF0FBECDBF09942A8839884888E1
:100DB0005F846E847D848C849B84AA84B984C88477
:100DC000DF80EE80FD800C811B81AA81B981CE0F6E
:100DD000D11D0FB6F894DEBF0FBECDBFED01089553
:040DE000F894FFCFB5
:100DE4007C00496E206C6F6F70206E756D62657249
:100DF40020002061206469666665726E6365206FF9
:100E0400662000206D696C6C697365636F6E647332
:100E1400206F6363757265642E0001000000010099
:100E24000D000C000E00000000006B04B804D00498
:00000001FF
