:100000000C9462000C948A000C948A000C948A0070
:100010000C948A000C948A000C948A000C948A0038
:100020000C948A000C948A000C948A000C948A0028
:100030000C948A000C948A000C948A000C948A0018
:100040000C94F0020C948A000C94C9010C948A0060
:100050000C948A000C948A000C948A000C948A00F8
:100060000C948A000C948A000000000024002700F1
:100070002A0000000000250028002B0000000000DE
:1000800023002600290004040404040404040202DA
:100090000202020203030303030301020408102007
:1000A0004080010204081020010204081020000012
:1000B0000007000201000003040600000000000029
:1000C0000000820211241FBECFEFD4E0DEBFCDBFFF
:1000D00011E0A0E0B1E0E2EAF9E002C005900D9283
:1000E000A033B107D9F712E0A0E3B1E001C01D923F
:1000F000AF34B107E1F710E0C4ECD0E004C02297C0
:10010000FE010E94CB04C23CD107C9F70E94C20184
:100110000C94CF040C940000AF92BF92CF92DF9268
:10012000EF92FF920F931F93CF93DF9390E0A92E4E
:1001300091E0B92ECC24DD24F501808161E00E949C
:10014000B003760184E0EE0CFF1C8A95E1F780E3B2
:1001500091E0E80EF91EC0E1D1E0F70100811181C4
:100160008881602F0E94B003012B21F4888161E017
:100170000E94B00382E090E0E80EF91E229691E022
:10018000C032D90751F7F501808160E00E94B003C9
:100190000894C11CD11C82E090E0A80EB91E98E022
:1001A000C916D10449F6DF91CF911F910F91FF90AD
:1001B000EF90DF90CF90BF90AF9008954F925F92F5
:1001C0006F927F928F929F92AF92BF92CF92DF9267
:1001D000EF92FF920F931F93E0912001F091210184
:1001E00013E0EE0FFF1F1A95E1F780912201909125
:1001F0002301E80FF91FB0E34B2EB1E05B2EEE0FA9
:10020000FF1FE40DF51D81E090E09183808380E085
:100210000E94720300D000D0AA2797FDA095BA2FA4
:10022000F7E06F2E712C812C912CEDB7FEB7618217
:10023000728283829482BC01CD012CE731E040E0E0
:1002400050E0ECE6EE2EE2E0FE2E012D112DAA2468
:10025000BB2465010E94FD0327E030E0261B370B1D
:1002600030932101209320010F900F900F900F9059
:1002700081E00E94720300D000D0AA2797FDA095CC
:10028000BA2FEDB7FEB76182728283829482BC017D
:10029000CD012CE731E040E050E00E94FD039B01DE
:1002A000709323016093220180912001909121019C
:1002B00043E0880F991F4A95E1F7820F931F880F3B
:1002C000991F480E591EF201118210820F900F9053
:1002D0000F900F901F910F91FF90EF90DF90CF90B4
:1002E000BF90AF909F908F907F906F905F904F9056
:1002F00008950E94DE000E948C0008950F931F93C2
:10030000CF93DF9384E392E040E855E260E070E051
:100310000E940602C0E1D1E000E011E0888161E0C6
:100320000E949003F801808161E00E94900388811F
:1003300061E00E94B00322960E5F1F4FF1E0C032D1
:10034000DF0761F720E030E041E050E00BC041936F
:100350005193019688309105D1F72F5F3F4F283098
:10036000310559F0F90104E0EE0FFF1F0A95E1F79E
:10037000E05DFE4F80E090E0EACFDF91CF911F91EA
:100380000F9108950E9438030E947E010E94790116
:10039000FDCF1F920F920FB60F9211242F933F9310
:1003A0004F935F936F937F938F939F93AF93BF937D
:1003B000EF93FF934091C600E0913002F09131023B
:1003C000CF01019660E870E00E9465049C01809175
:1003D0003202909133022817390739F0E055FE4F69
:1003E00040833093310220933002FF91EF91BF910F
:1003F000AF919F918F917F916F915F914F913F91BD
:100400002F910F900FBE0F901F901895AF92BF9233
:10041000CF92DF92EF92FF920F931F93CF93DF93D0
:100420006C017A018B01DC011496AD90BC9015979C
:10043000CB01BA0122E030E040E050E00E949A0493
:10044000205C3D4B404F5F4FCA01B901A8019701A5
:100450000E949A04C901DA010197A109B109292F63
:100460003A2F4B2F552747FD5A950196A11DB11DD7
:10047000E5012883E601EE81FF8181508083EA85D2
:10048000FB85208141E050E0CA010E8402C0880F44
:10049000991F0A94E2F7282B2083EA85FB852081A7
:1004A000CA010F8402C0880F991F0A94E2F7282B13
:1004B0002083EA85FB858081088802C0440F551F90
:1004C0000A94E2F7842B8083DF91CF911F910F91E3
:1004D000FF90EF90DF90CF90BF90AF900895FC0118
:1004E000A085B18521898C9190E0022E02C095955E
:1004F00087950A94E2F780FFF6CF0484F585E02D16
:100500006083089589E291E09093350280933402EC
:1005100080EB91E0909337028093360285EC90E077
:10052000909339028093380284EC90E090933B02E0
:1005300080933A0280EC90E090933D0280933C02DD
:1005400081EC90E090933F0280933E0286EC90E035
:10055000909341028093400284E08093420283E0C2
:100560008093430287E08093440285E080934502B4
:1005700008950F931F93CF93DF938C01EB0109C074
:100580002196D801ED91FC910190F081E02DC801F8
:10059000099568816623A1F7DF91CF911F910F9193
:1005A0000895EF92FF920F931F93CF93DF938C01E7
:1005B0007B01EA010CC0D7016D917D01D801ED915D
:1005C000FC910190F081E02DC801099521972097B9
:1005D00091F7DF91CF911F910F91FF90EF900895C8
:1005E0001F920F920FB60F9211242F933F938F9368
:1005F0009F93AF93BF9380914A0290914B02A09139
:100600004C02B0914D0230914E020196A11DB11DD8
:10061000232F2D5F2D3720F02D570196A11DB11DE1
:1006200020934E0280934A0290934B02A0934C0277
:10063000B0934D028091460290914702A0914802EA
:10064000B09149020196A11DB11D8093460290937D
:100650004702A0934802B0934902BF91AF919F9186
:100660008F913F912F910F900FBE0F901F90189573
:10067000789484B5826084BD84B5816084BD85B57D
:10068000826085BD85B5816085BDEEE6F0E0808144
:1006900081608083E1E8F0E08081826080838081F6
:1006A00081608083E0E8F0E0808181608083E1EB1D
:1006B000F0E0808184608083E0EBF0E08081816005
:1006C0008083EAE7F0E080818460808380818260BB
:1006D00080838081816080838081806880831092A4
:1006E000C10008958770909124019295990F990FF8
:1006F000907C982B90937C0080917A00806480930A
:100700007A0080917A0086FDFCCF2091780040919C
:100710007900942F80E030E0282B392BC90108950F
:10072000282F30E0C90186569F4FFC0194912A572B
:100730003F4FF9018491882391F0E82FF0E0EE0F0C
:10074000FF1FE859FF4FA591B491662329F48C91BE
:10075000909589238C9308958C91892B8C9308957F
:10076000482F50E0CA0182559F4FFC012491CA01D5
:1007700086569F4FFC0194914A575F4FFA0134917E
:100780003323D1F1222331F1233021F480918000F1
:100790008F7705C0243031F4809180008F7D809365
:1007A000800018C0213019F484B58F7704C022303E
:1007B00021F484B58F7D84BD0DC0263021F4809155
:1007C000B0008F7705C0273029F48091B0008F7D6D
:1007D0008093B000E32FF0E0EE0FFF1FEE58FF4FC5
:1007E000A591B491662329F48C91909589238C93DB
:1007F00008958C91892B8C9308952F923F924F925C
:100800005F926F927F928F929F92AF92BF92CF92A0
:10081000DF92EF92FF920F931F93DF93CF93CDB7A9
:10082000DEB73B014C0119012A016D897E898F8950
:10083000988D6A197B098C099D09621A730A840ACA
:10084000950AA40193010E944604E218F3080409E2
:100850001509A80197010E949A042A0D3B1D4C1D01
:100860005D1DB901CA01CF91DF911F910F91FF90DA
:10087000EF90DF90CF90BF90AF909F908F907F9040
:100880006F905F904F903F902F900895629FD0019E
:10089000739FF001829FE00DF11D649FE00DF11D3B
:1008A000929FF00D839FF00D749FF00D659FF00DEA
:1008B0009927729FB00DE11DF91F639FB00DE11DD7
:1008C000F91FBD01CF011124089597FB092E0726BA
:1008D0000AD077FD04D049D006D000201AF47095D4
:1008E00061957F4F0895F6F7909581959F4F0895F4
:1008F000A1E21A2EAA1BBB1BFD010DC0AA1FBB1F24
:10090000EE1FFF1FA217B307E407F50720F0A21B95
:10091000B30BE40BF50B661F771F881F991F1A9402
:1009200069F760957095809590959B01AC01BD012C
:10093000CF01089597FB092E05260ED057FD04D050
:10094000D7DF0AD0001C38F450954095309521959A
:100950003F4F4F4F5F4F0895F6F7909580957095F4
:1009600061957F4F8F4F9F4F0895AA1BBB1B51E18D
:1009700007C0AA1FBB1FA617B70710F0A61BB70B0F
:10098000881F991F5A95A9F780959095BC01CD01B4
:100990000895EE0FFF1F0590F491E02D0994F8944F
:0209A000FFCF87
:1009A200090008000400110003000A000B00060001
:1009B20010000C0012000D000500130007000200D9
:1009C2000500050001000000006F02B902D102001B
:00000001FF
