:100000000C9462000C948A000C948A000C948A0070
:100010000C948A000C948A000C948A000C948A0038
:100020000C948A000C948A000C948A000C948A0028
:100030000C948A000C948A000C948A000C948A0018
:100040000C941E020C948A000C9437030C948A00C2
:100050000C948A000C948A000C948A000C948A00F8
:100060000C948A000C948A000000000024002700F1
:100070002A0000000000250028002B0000000000DE
:1000800023002600290004040404040404040202DA
:100090000202020203030303030301020408102007
:1000A0004080010204081020010204081020000012
:1000B0000007000201000003040600000000000029
:1000C0000000800411241FBECFEFD4E0DEBFCDBFFF
:1000D00011E0A0E0B1E0EAE0FDE002C005900D9281
:1000E000A035B107D9F711E0A0E5B1E001C01D923C
:1000F000A13FB107E1F710E0C4ECD0E004C02297C3
:10010000FE010E947F06C23CD107C9F70E94170278
:100110000C9483060C9400000F931F93062F182F46
:100120001F778AE060E00E94EA021EBD0DB407FE60
:10013000FDCF8EB50EBD0DB407FEFDCF8EB58AE0A6
:1001400061E00E94EA021F910F9108951F93182FFA
:1001500010688AE060E00E94EA021EBD0DB407FE4E
:10016000FDCF8EB51EBC0DB407FEFDCF1EB58AE0D7
:1001700061E00E94EA02812F1F9108958F929F9261
:10018000AF92BF92CF92DF92EF92FF920F931F93A5
:1001900089E20E94A600182F807F31F08EED91E059
:1001A00060E071E00E94F10488E20E94A600D82E6F
:1001B0008FE0F82EF122EE248EED91E066E071E002
:1001C0000E94F104ED0CF11C0027F7FC0095102FA4
:1001D0008EED91E0B801A7012AE030E00E94DA0537
:1001E0008BE20E94A600D82E8AE20E94A600C82EAA
:1001F000FD2CEE248EED91E06DE071E00E94F104A3
:10020000EC0CF11C0027F7FC0095102F8EED91E00F
:10021000B801A7012AE030E00E94DA058DE20E94D1
:10022000A600982E8EED91E065E171E00E94F10448
:10023000A92CBB24CC24DD248EED91E0B601A501D0
:100240002AE030E00E94DA058EED91E06AE171E08B
:100250000E94F1048CE20E94A600882E8EED91E0AF
:100260006DE171E00E94F104482D50E060E070E023
:100270008EED91E02AE030E00E94DA058EED91E00B
:100280006AE171E00E94F104F92CEE248EED91E018
:1002900062E271E00E94F1048EED91E0B601A501E9
:1002A0002AE030E00E94DA058EED91E06AE171E02B
:1002B0000E94F1048EED91E06BE271E00E94F10486
:1002C000E80CF11C0027F7FC0095102F8EED91E053
:1002D000B801A7012AE030E00E94EF0564EF71E069
:1002E00080E090E00E9466028AE061E00E94EA02FB
:1002F0008FE00E94A6008EED91E00E94F9046AE072
:1003000070E080E090E00E9466021F910F91FF90E4
:10031000EF90DF90CF90BF90AF909F908F90089517
:100320008F929F92AF92BF92CF92DF92EF92FF9205
:100330000F931F93109250013EEDC32E31E0D32E48
:10034000C60140E855E260E070E00E9474038BE073
:1003500061E00E94CA028CE060E00E94CA028DE067
:1003600061E00E94CA028AE061E00E94CA028AE05B
:1003700061E00E94EA028AE061E00E94CA028CE524
:100380008CBD8DB58EB5809350018FE00E94A60084
:10039000E82E23E3822E21E0922EC601B4010E94B2
:1003A000F104FF24E7FCF0940F2D1F2DC601B801C6
:1003B000A70120E130E00E94DA059EE3A92E91E03A
:1003C000B92EC601B5010E94100580E267E80E94BF
:1003D0008C008FE00E94A600E82EC601B4010E94A6
:1003E000F104FF24E7FCF0940F2D1F2DC601B80186
:1003F000A70120E130E00E94DA05C601B5010E94A4
:100400001005C60160E471E00E9410056AEF70E01B
:1004100080E090E00E9466021F910F91FF90EF90A4
:10042000DF90CF90BF90AF909F908F9008950E94E3
:1004300090020E9490010E94BE00FDCF1F920F9279
:100440000FB60F9211242F933F938F939F93AF93E7
:10045000BF938091550190915601A0915701B091A1
:100460005801309159010196A11DB11D232F2D5F17
:100470002D3720F02D570196A11DB11D2093590154
:100480008093550190935601A0935701B093580162
:100490008091510190915201A0915301B09154016A
:1004A0000196A11DB11D8093510190935201A0931B
:1004B0005301B0935401BF91AF919F918F913F91A0
:1004C0002F910F900FBE0F901F901895EF92FF92F3
:1004D0000F931F937B018C018FB7F89440915501C6
:1004E0005091560160915701709158018FBF2FB7FD
:1004F000F8948091550190915601A0915701B091C7
:1005000058012FBF841B950BA60BB70BE816F906F5
:100510000A071B0760F71F910F91FF90EF90089556
:10052000789484B5826084BD84B5816084BD85B5CE
:10053000826085BD85B5816085BDEEE6F0E0808195
:1005400081608083E1E8F0E0808182608083808147
:1005500081608083E0E8F0E0808181608083E1EB6E
:10056000F0E0808184608083E0EBF0E08081816056
:100570008083EAE7F0E0808184608083808182600C
:1005800080838081816080838081806880831092F5
:10059000C1000895282F30E0C90186569F4FFC0105
:1005A00094912A573F4FF9018491882391F0E82FC5
:1005B000F0E0EE0FFF1FE859FF4FA591B4916623BD
:1005C00029F48C91909589238C9308958C91892B93
:1005D0008C930895482F50E0CA0182559F4FFC012B
:1005E0002491CA0186569F4FFC0194914A575F4F50
:1005F000FA0134913323D1F1222331F1233021F454
:10060000809180008F7705C0243031F48091800084
:100610008F7D8093800018C0213019F484B58F77C6
:1006200004C0223021F484B58F7D84BD0DC02630F6
:1006300021F48091B0008F7705C0273029F4809194
:10064000B0008F7D8093B000E32FF0E0EE0FFF1F2E
:10065000EE58FF4FA591B491662329F48C919095A3
:1006600089238C9308958C91892B8C9308951F92E4
:100670000F920FB60F9211242F933F934F935F93D6
:100680006F937F938F939F93AF93BF93EF93FF935A
:100690004091C600E091DA01F091DB01CF010196B3
:1006A00060E870E00E9419069C018091DC01909145
:1006B000DD012817390739F0E65AFE4F40833093A1
:1006C000DB012093DA01FF91EF91BF91AF919F91F0
:1006D0008F917F916F915F914F913F912F910F90EB
:1006E0000FBE0F901F9018955F926F927F928F921E
:1006F0009F92AF92BF92CF92DF92EF92FF920F93B1
:100700001F93CF93DF93EC013A014B01413482E414
:1007100058078FE0680780E078070CF07FC060E83A
:1007200074E88EE190E0A40193010E944E062150EE
:10073000304040405040CA01B90122E030E040E082
:1007400050E00E944E0659016A01A60195012095CC
:1007500030954095509594E0220F331F441F551F4C
:100760009A95D1F760E074E284EF90E00E944E0623
:10077000CA01B9012FEF30E040E050E00E94FA05D5
:10078000A40193010E944E06C90181509F4F181683
:1007900019061CF4522E5A9403C055245394521A2D
:1007A00060E079E08DE390E0A40193010E944E06A1
:1007B0002150304040405040CA01B90122E030E0B1
:1007C00040E050E00E944E062095309540955095AF
:1007D00083E0220F331F441F551F8A95D1F760E035
:1007E00074E284EF90E00E944E06CA01B9012FEF37
:1007F00030E040E050E00E94FA05A40193010E941D
:100800004E06C90181509F4F181619061CF4822FFD
:10081000815002C081E0821B851500F5E885F985CD
:1008200081E090E00A8802C0880F991F0A94E2F7DD
:10083000808360E079E08DE390E0A40193010E9461
:100840004E062150304040405040CA01B90122E0DC
:1008500030E040E050E00E944E0604C0E885F98593
:1008600010829501EC81FD813083EE81FF81208330
:10087000EA85FB85208141E050E0CA010E8402C078
:10088000880F991F0A94E2F7282B2083EA85FB85BD
:100890002081CA010F8402C0880F991F0A94E2F7D1
:1008A000282B2083EA85FB858081088802C0440FBD
:1008B000551F0A94E2F7842B8083DF91CF911F911B
:1008C0000F91FF90EF90DF90CF90BF90AF909F90EF
:1008D0008F907F906F905F900895FC01A085B18507
:1008E00021898C9190E0022E02C0959587950A94FB
:1008F000E2F780FFF6CF0484F585E02D608308954C
:1009000089E491E09093DF018093DE018AE591E034
:100910009093E1018093E00185EC90E09093E301F6
:100920008093E20184EC90E09093E5018093E401F0
:1009300080EC90E09093E7018093E60181EC90E0F9
:100940009093E9018093E80186EC90E09093EB01AD
:100950008093EA0184E08093EC0183E08093ED01D1
:1009600087E08093EE0185E08093EF0181E0809342
:10097000F00108950F931F93CF93DF938C01EB0148
:1009800009C02196D801ED91FC910190F081E02DF4
:10099000C801099568816623A1F7DF91CF911F9166
:1009A0000F910895EF92FF920F931F93CF93DF93D0
:1009B0008C017B01EA010CC0D7016D917D01D8014A
:1009C000ED91FC910190F081E02DC80109952197EE
:1009D000209791F7DF91CF911F910F91FF90EF90AA
:1009E0000895DC01ED91FC910280F381E02D0995E1
:1009F00008950F931F938C01DC01ED91FC91019000
:100A0000F081E02D6DE00995D801ED91FC91019008
:100A1000F081E02DC8016AE009951F910F910895BA
:100A20000F931F938C010E94F104C8010E94F904E6
:100A30001F910F9108952F923F924F925F926F9264
:100A40007F928F929F92AF92BF92CF92DF92EF925E
:100A5000FF920F931F93DF93CF93CDB7DEB7A0978D
:100A60000FB6F894DEBF0FBECDBF1C016A017B013B
:100A7000411551056105710549F4DC01ED91FC91C9
:100A80000190F081E02D60E3099554C088249924F9
:100A90005401422E55246624772401E010E00C0F07
:100AA0001D1F080D191DC701B601A30192010E9467
:100AB0002C06F80160830894811C911CA11CB11CB8
:100AC000C701B601A30192010E942C06C901DA01F7
:100AD0006C017D01C114D104E104F104F1F681E05F
:100AE000E82EF12CEC0EFD1EE80CF91C3E010894DA
:100AF000611C711CD501C4010197A109B1096C01E8
:100B0000C818D90814C0F601EE0DFF1D60816A30C7
:100B100010F4605D01C0695CD101ED91FC91019020
:100B2000F081E02DC10109950894E108F1086E14E7
:100B30007F0449F7A0960FB6F894DEBF0FBECDBF75
:100B4000CF91DF911F910F91FF90EF90DF90CF90A9
:100B5000BF90AF909F908F907F906F905F904F90DD
:100B60003F902F900895EF92FF920F931F93CF9392
:100B7000DF93EC017A018B0177FF0FC0E881F981E7
:100B80000190F081E02D6DE2099510950095F094AB
:100B9000E094E11CF11C011D111DCE01B801A7015B
:100BA0002AE00E941B05DF91CF911F910F91FF90CA
:100BB000EF900895DC012115310541F4ED91FC9190
:100BC0000190F081E02D642F099508952A303105B8
:100BD00019F40E94B30508950E941B0508950F9310
:100BE0001F938C010E94DA05C8010E94F9041F912D
:100BF0000F910895629FD001739FF001829FE00DD5
:100C0000F11D649FE00DF11D929FF00D839FF00D8B
:100C1000749FF00D659FF00D9927729FB00DE11D37
:100C2000F91F639FB00DE11DF91FBD01CF01112414
:100C3000089597FB092E07260AD077FD04D049D0E6
:100C400006D000201AF4709561957F4F0895F6F74D
:100C5000909581959F4F0895A1E21A2EAA1BBB1B68
:100C6000FD010DC0AA1FBB1FEE1FFF1FA217B30778
:100C7000E407F50720F0A21BB30BE40BF50B661F8E
:100C8000771F881F991F1A9469F760957095809552
:100C900090959B01AC01BD01CF01089597FB092EF2
:100CA00005260ED057FD04D0D7DF0AD0001C38F43B
:100CB00050954095309521953F4F4F4F5F4F089588
:100CC000F6F790958095709561957F4F8F4F9F4F68
:100CD0000895AA1BBB1B51E107C0AA1FBB1FA61783
:100CE000B70710F0A61BB70B881F991F5A95A9F7D5
:100CF00080959095BC01CD010895EE0FFF1F0590E2
:0A0D0000F491E02D0994F894FFCF60
:100D0A004E45475F5800785F76616C3D0020795FF9
:100D1A0076616C3D007A5F683D002C20007A5F6C3A
:100D2A003D007A5F685F3C3C383D00207A5F76611F
:100D3A006C3D0057484F5F414D5F49205B005D00A5
:100D4A002D2D2D2D00000000006D04BA04D20400E0
:00000001FF
