:100000000C9461000C947E000C947E000C947E0095
:100010000C947E000C947E000C947E000C947E0068
:100020000C947E000C947E000C947E000C947E0058
:100030000C947E000C947E000C947E000C947E0048
:100040000C9475010C947E000C947E000C947E0040
:100050000C947E000C947E000C947E000C947E0028
:100060000C947E000C947E00000000002400270009
:100070002A0000000000250028002B0000000000DE
:1000800023002600290004040404040404040202DA
:100090000202020203030303030301020408102007
:1000A0004080010204081020010204081020000012
:1000B0000007000201000003040600000000000029
:1000C000000011241FBECFEFD4E0DEBFCDBF11E092
:1000D000A0E0B1E0E6ECF6E002C005900D92AA3097
:1000E000B107D9F711E0AAE0B1E001C01D92A73134
:1000F000B107E1F70E946E010C9461030C940000BB
:10010000A0E0B0E0E6E8F0E00C943203EC01A88057
:10011000B980CA80DB80A114B104C104D10441F4C8
:1001200084E2A82E89EDB82E8BE5C82E87E0D82E64
:10013000C601B5012DE133EF41E050E00E94ED0230
:1001400027EA31E440E050E00E94CE027B018C01BE
:10015000C601B5012DE133EF41E050E00E94ED0210
:10016000CA01B9012CEE34EF4FEF5FEF0E94CE02CF
:100170006E0D7F1D801F911F97FF04C0615070405E
:1001800080409048688379838A839B839B01AC017C
:100190005F77B901CA01CDB7DEB7EAE00C944E0330
:1001A0000E948000089580E091E00E948000089500
:1001B0006093000170930101809302019093030109
:1001C000089565E070E080E090E02FE030E040E0EE
:1001D00050E00E94B00260930A0170930B0180937B
:1001E0000C0190930D018091040161E00E94410295
:1001F0008091080160E00E9441028091060160E068
:100200000E94410260910A0170910B0180910C01E2
:1002100090910D010E94BD0164E070E080E090E0EB
:100220002AE030E040E050E00E94B00260930A0112
:1002300070930B0180930C0190930D018091040148
:1002400060E00E9441028091080161E00E94410249
:100250008091060160E00E94410260910A01709164
:100260000B0180910C0190910D010E94BD0165E090
:1002700070E080E090E02FE030E040E050E00E944D
:10028000B00260930A0170930B0180930C0190936C
:100290000D018091040160E00E94410280910801FB
:1002A00060E00E9441028091060161E00E944102EB
:1002B00060910A0170910B0180910C0190910D01E8
:1002C0000E94BD0108958091040161E00E94210215
:1002D0008091060161E00E94210208950E94E701D9
:1002E0000E9463010E94E100FDCF1F920F920FB6A2
:1002F0000F9211242F933F938F939F93AF93BF93AC
:100300008091120190911301A0911401B0911501F7
:10031000309116010196A11DB11D232F2D5F2D37A0
:1003200020F02D570196A11DB11D20931601809339
:10033000120190931301A0931401B09315018091C1
:100340000E0190910F01A0911001B0911101019641
:10035000A11DB11D80930E0190930F01A093100178
:10036000B0931101BF91AF919F918F913F912F91C8
:100370000F900FBE0F901F901895EF92FF920F9362
:100380001F937B018C018FB7F8944091120150911B
:10039000130160911401709115018FBF2FB7F8946C
:1003A0008091120190911301A0911401B091150157
:1003B0002FBF841B950BA60BB70BE816F9060A078F
:1003C0001B0760F71F910F91FF90EF9008957894AD
:1003D00084B5826084BD84B5816084BD85B582604A
:1003E00085BD85B5816085BDEEE6F0E080818160E8
:1003F0008083E1E8F0E08081826080838081816099
:100400008083E0E8F0E0808181608083E1EBF0E0D0
:10041000808184608083E0EBF0E080818160808374
:10042000EAE7F0E08081846080838081826080835D
:100430008081816080838081806880831092C10088
:100440000895282F30E0C90186569F4FFC019491F2
:100450002A573F4FF9018491882391F0E82FF0E06B
:10046000EE0FFF1FE859FF4FA591B491662329F4C1
:100470008C91909589238C9308958C91892B8C93E2
:100480000895482F50E0CA0182559F4FFC012491E6
:10049000CA0186569F4FFC0194914A575F4FFA015B
:1004A00034913323D1F1222331F1233021F480918F
:1004B00080008F7705C0243031F4809180008F7DDB
:1004C0008093800018C0213019F484B58F7704C060
:1004D000223021F484B58F7D84BD0DC0263021F4F7
:1004E0008091B0008F7705C0273029F48091B0004B
:1004F0008F7D8093B000E32FF0E0EE0FFF1FEE58EA
:10050000FF4FA591B491662329F48C91909589238E
:100510008C9308958C91892B8C930895EF92FF9280
:100520000F931F937B018C01611571058105910566
:1005300029F420E030E040E050E00BC00E94D300FE
:10054000A80197010E94ED02AC01CB01DA019C01E8
:10055000AD01B901CA011F910F91FF90EF9008956D
:10056000EF92FF920F931F937B018C016217730729
:100570008407950764F4261B370B480B590BCA01F7
:10058000B9010E948E02E60EF71E081F191FB7015F
:10059000C8011F910F91FF90EF900895629FD001C5
:1005A000739FF001829FE00DF11D649FE00DF11D2E
:1005B000929FF00D839FF00D749FF00D659FF00DDD
:1005C0009927729FB00DE11DF91F639FB00DE11DCA
:1005D000F91FBD01CF011124089597FB092E0526AF
:1005E0000ED057FD04D014D00AD0001C38F450951A
:1005F0004095309521953F4F4F4F5F4F0895F6F747
:1006000090958095709561957F4F8F4F9F4F08957E
:10061000A1E21A2EAA1BBB1BFD010DC0AA1FBB1F06
:10062000EE1FFF1FA217B307E407F50720F0A21B78
:10063000B30BE40BF50B661F771F881F991F1A94E5
:1006400069F760957095809590959B01AC01BD010F
:10065000CF0108952F923F924F925F926F927F92B7
:100660008F929F92AF92BF92CF92DF92EF92FF92C2
:100670000F931F93CF93DF93CDB7DEB7CA1BDB0B6E
:100680000FB6F894DEBF0FBECDBF09942A88398813
:1006900048885F846E847D848C849B84AA84B9841A
:1006A000C884DF80EE80FD800C811B81AA81B98126
:1006B000CE0FD11D0FB6F894DEBF0FBECDBFED013A
:0606C0000895F894FFCF3D
:0A06C600010000000D000C000E0002
:00000001FF
