:100000000C9461000C947E000C947E000C947E0095
:100010000C947E000C947E000C947E000C947E0068
:100020000C947E000C947E000C947E000C947E0058
:100030000C947E000C9480000C947E000C947E0046
:100040000C941A020C947E000C947E000C947E009A
:100050000C947E000C947E000C947E000C947E0028
:100060000C947E000C947E00000000002400270009
:100070002A0000000000250028002B0000000000DE
:1000800023002600290004040404040404040202DA
:100090000202020203030303030301020408102007
:1000A0004080010204081020010204081020000012
:1000B0000007000201000003040600000000000029
:1000C000000011241FBECFEFD8E0DEBFCDBF11E08E
:1000D000A0E0B1E0E2E8F6E002C005900D92A032A7
:1000E000B107D9F711E0A0E2B1E001C01D92A83339
:1000F000B107E1F70E9413020C943F030C94000037
:100100001F920F920FB60F9211242F933F934F938C
:100110005F936F937F938F939F93AF93BF93EF936F
:10012000FF93E0912301F09124010995FF91EF9154
:10013000BF91AF919F918F917F916F915F914F91FF
:100140003F912F910F900FBE0F901F901895FC01BB
:10015000A2E0440F551F661F771FAA95D1F74030C4
:1001600080E0580781E0680780E0780714F481E0B8
:1001700010C033E075956795579547953A95D1F737
:10018000403080E0580781E0680780E078071CF481
:1001900082E0828339C023E075956795579547952E
:1001A0002A95D1F7403080E0580781E0680780E069
:1001B000780714F483E0EDCF92E075956795579535
:1001C00047959A95D1F7403080E0580781E068075D
:1001D00080E0780714F484E0DCCF82E075956795C1
:1001E000579547958A95D1F7403080E0580781E0D0
:1001F000680780E0780714F485E0CBCF85E0828340
:100200004FEF5FEF60E070E05183408350938700D1
:100210004093860080918100887F80938100809147
:1002200081009281892B8093810008951092800033
:1002300020E1209381000E94A70008950F931F934F
:10024000CF93DF93EC018B011216130614061506EB
:1002500024F4BA01A9010E94A7001C830B8381E04A
:1002600080936F007894809181009A81892B80938C
:100270008100DF91CF911F910F9108950F931F93EC
:10028000CF93DF9305E211E0E801199281E0CD32CE
:10029000D807D9F768EE73E080E090E00E946E0224
:1002A000FE013597808185608083FE0134978081CF
:1002B00084608083FE01339780818460808360E95D
:1002C00071E080E090E00E946E02F80111928F01CF
:1002D000F1E00D321F07C9F768EE73E080E090E0AF
:1002E0000E946E028091280188608093280160E955
:1002F00071E080E090E00E946E02DF91CF911F914B
:100300000F910895E0912D01F0E0E050FF4FE08162
:10031000F0E0E15FFE4F808161E00E94F202E09137
:100320002E01F0E0E85FFE4FE081F0E0E15FFE4F7C
:10033000808160E00E94F20280912E018F5F8093A5
:100340002E0180912E01883068F010922E0180914C
:100350002D018F5F80932D0180912D01883010F049
:1003600010922D01E0912D0120912E01F0E0EB5D26
:10037000FE4F808190E002C0959587952A95E2F71F
:1003800080FF19C0E0912D01F0E0E050FF4FE081C7
:10039000F0E0E15FFE4F808160E00E94F202E091B8
:1003A0002E01F0E0E85FFE4FE081F0E0E15FFE4FFC
:1003B000808161E018C0E0912D01F0E0E050FF4F36
:1003C000E081F0E0E15FFE4F808161E00E94F20297
:1003D000E0912E01F0E0E85FFE4FE081F0E0E15FA8
:1003E000FE4F808160E00E94F20208951F9380E238
:1003F00091E044E650E060E070E00E94160112E0F7
:10040000812F61E00E94D2021F5F1231C9F780E2A2
:1004100091E062E871E02FEF3FEF4FEF5FEF0E9456
:100420001E011F9108950E9498020E94F6010E94E9
:100430003E01FDCF1F920F920FB60F9211242F9302
:100440003F934F935F936F937F938F939F93AF935C
:10045000BF93209133013091340140913501509187
:10046000360170913701DA01C9010296A11DB11D53
:10047000672F6A5F6D3730F06D57DA01C901039657
:10048000A11DB11D60933701809333019093340116
:10049000A0933501B093360180912F0190913001E6
:1004A000A0913101B09132010196A11DB11D80933F
:1004B0002F0190933001A0933101B0933201BF918D
:1004C000AF919F918F917F916F915F914F913F91EC
:1004D0002F910F900FBE0F901F901895EF92FF92E3
:1004E0000F931F937B018C018FB7F89440913301D8
:1004F0005091340160913501709136018FBF2FB753
:10050000F8948091330190913401A0913501B0911C
:1005100036012FBF841B950BA60BB70BE816F90607
:100520000A071B0760F71F910F91FF90EF90089546
:10053000789484B5826084BD84B5816084BD85B5BE
:10054000826085BD85B5816085BDEEE6F0E0808185
:1005500081608083E1E8F0E0808182608083808137
:1005600081608083E0E8F0E0808181608083E1EB5E
:10057000F0E0808184608083E0EBF0E08081816046
:100580008083EAE7F0E080818460808380818260FC
:1005900080838081816080838081806880831092E5
:1005A000C1000895282F30E0C90186569F4FFC01F5
:1005B00094912A573F4FF9018491882391F0E82FB5
:1005C000F0E0EE0FFF1FE859FF4FA591B4916623AD
:1005D00029F48C91909589238C9308958C91892B83
:1005E0008C930895482F50E0CA0182559F4FFC011B
:1005F0002491CA0186569F4FFC0194914A575F4F40
:10060000FA0134913323D1F1222331F1233021F443
:10061000809180008F7705C0243031F48091800074
:100620008F7D8093800018C0213019F484B58F77B6
:1006300004C0223021F484B58F7D84BD0DC02630E6
:1006400021F48091B0008F7705C0273029F4809184
:10065000B0008F7D8093B000E32FF0E0EE0FFF1F1E
:10066000EE58FF4FA591B491662329F48C91909593
:1006700089238C9308958C91892B8C930895F894F9
:02068000FFCFAA
:10068200090E080C010702050D03040A060B0F10E0
:10069200050403020E0F10110D0C0B0A09080706C0
:00000001FF
