:100000000C9461000C947E000C947E000C947E0095
:100010000C947E000C947E000C947E000C947E0068
:100020000C947E000C947E000C947E000C947E0058
:100030000C947E000C947E000C947E000C947E0048
:100040000C94FD000C947E000C947E000C947E00B9
:100050000C947E000C947E000C947E000C947E0028
:100060000C947E000C947E00000000002400270009
:100070002A0000000000250028002B0000000000DE
:1000800023002600290004040404040404040202DA
:100090000202020203030303030301020408102007
:1000A0004080010204081020010204081020000012
:1000B0000007000201000003040600000000000029
:1000C000000011241FBECFEFD4E0DEBFCDBF11E092
:1000D000A0E0B1E0E0E8F4E002C005900D92AE309F
:1000E000B107D9F711E0AEE0B1E001C01D92AC312B
:1000F000B107E1F70E94F6000C943E020C94000058
:10010000CF93DF9310920F0110920E01C1E0D0E067
:1001100044C08091000160E00E94F10180910201E1
:1001200060E00E94F1018091040160E00E94F10111
:100130008091000160E00E94F1018091020160E085
:100140000E94F1018091040160E00E94F101609140
:100150000C0170910D01882777FD8095982F0E94E2
:100160006D01D0930F01C0930E018091000161E0F9
:100170000E94F10160910C0170910D01882777FDBB
:100180008095982F0E946D0180910E0190910F0132
:10019000019690930F0180930E0180910E01909132
:1001A0000F0106970CF4B5CFDF91CF9108958091A0
:1001B000000161E00E94D1018091020161E00E9492
:1001C000D1018091040161E00E94D101809106017A
:1001D00061E00E94D1018091080161E00E94D1019B
:1001E00080910A0161E00E94D10108950E94970167
:1001F0000E94D7000E948000FDCF1F920F920FB681
:100200000F9211242F938F939F93AF93BF9380915D
:10021000100190911101A0911201B091130101966A
:10022000A11DB11D8093100190931101A0931201A3
:10023000B09313018091140190911501A0911601C2
:10024000B09117018050904CAF4FBF4F8093140175
:1002500090931501A0931601B093170127C08091C8
:10026000140190911501A0911601B09117018054CD
:100270009F41A040B0408093140190931501A0933A
:100280001601B09317018091180190911901A09166
:100290001A01B0911B010196A11DB11D8093180197
:1002A00090931901A0931A01B0931B01809114013E
:1002B00090911501A0911601B091170181549F41B1
:1002C000A040B04060F6BF91AF919F918F912F9168
:1002D0000F900FBE0F901F901895EF92FF920F9303
:1002E0001F937B018C018FB7F894409118015091B6
:1002F000190160911A0170911B018FBF2FB7F894FB
:100300008091180190911901A0911A01B0911B01DF
:100310002FBF841B950BA60BB70BE816F9060A072F
:100320001B0760F71F910F91FF90EF90089578944D
:1003300084B5826084BD84B5816084BD85B58260EA
:1003400085BD85B5816085BDEEE6F0E08081816088
:100350008083E1E8F0E08081826080838081816039
:100360008083E0E8F0E0808181608083E1EBF0E071
:10037000808184608083E0EBF0E080818160808315
:10038000EAE7F0E0808184608083808182608083FE
:100390008081816080838081806880831092C10029
:1003A0000895282F30E0C90186569F4FFC01949193
:1003B0002A573F4FF9018491882391F0E82FF0E00C
:1003C000EE0FFF1FE859FF4FA591B491662329F462
:1003D0008C91909589238C9308958C91892B8C9383
:1003E0000895482F50E0CA0182559F4FFC01249187
:1003F000CA0186569F4FFC0194914A575F4FFA01FC
:1004000034913323D1F1222331F1233021F480912F
:1004100080008F7705C0243031F4809180008F7D7B
:100420008093800018C0213019F484B58F7704C000
:10043000223021F484B58F7D84BD0DC0263021F497
:100440008091B0008F7705C0273029F48091B000EB
:100450008F7D8093B000E32FF0E0EE0FFF1FEE588A
:10046000FF4FA591B491662329F48C91909589232F
:100470008C9308958C91892B8C930895F894FFCFD9
:0E0480000D000C000B000A00090008006400CB
:00000001FF
