:100000000C9462000C948A000C948A000C948A0070
:100010000C948A000C948A000C948A000C948A0038
:100020000C948A000C948A000C948A000C948A0028
:100030000C948A000C948A000C948A000C948A0018
:100040000C9472030C948A000C94A3010C948A0003
:100050000C948A000C948A000C948A000C948A00F8
:100060000C948A000C948A000000000024002700F1
:100070002A0000000000250028002B0000000000DE
:1000800023002600290004040404040404040202DA
:100090000202020203030303030301020408102007
:1000A0004080010204081020010204081020000012
:1000B0000007000201000003040600000000000029
:1000C00000005C0211241FBECFEFD8E0DEBFCDBF21
:1000D00011E0A0E0B1E0E4E2FCE002C005900D9286
:1000E000A033B107D9F711E0A0E3B1E001C01D9240
:1000F000A63DB107E1F710E0C4ECD0E004C02297C0
:10010000FE010E94D505C23CD107C9F70E949C019F
:100110000C9410060C940000A0E0B0E0E2E9F0E0DE
:100120000C94E105EC01A880B980CA80DB80A114A1
:10013000B104C104D10441F484E2A82E89EDB82EA3
:100140008BE5C82E87E0D82EC601B5012DE133EF2F
:1001500041E050E00E94A40527EA31E440E050E08D
:100160000E9450057B018C01C601B5012DE133EFE2
:1001700041E050E00E94A405CA01B9012CEE34EF21
:100180004FEF5FEF0E9450056E0D7F1D801F911F86
:1001900097FF04C061507040804090486883798325
:1001A0008A839B839B01AC015F77B901CA01CDB7FC
:1001B000DEB7EAE00C94FD050E948C00089586E00D
:1001C00091E00E948C0008956093060170930701EE
:1001D0008093080190930901089588EB91E040E82D
:1001E00055E260E070E00E94E0018091280161E04A
:1001F0000E94540480910E0161E00E945404809199
:10020000100161E00E9454048091120161E00E949B
:1002100054048091140161E00E94540480911601FD
:1002200061E00E9454048091180161E00E9454042E
:1002300080911A0161E00E94540480911C0161E0E8
:100240000E94540480911E0161E00E945404809138
:10025000200161E00E9454048091220161E00E942B
:1002600054048091240161E00E945404809126018D
:1002700061E00E9454048091280160E00E945404CF
:100280000895CF93DF93C8E0D1E08A8161E00E94B6
:100290007404888160E00E94740464E670E080E089
:1002A00090E00E94F003229681E0CA31D80769F7F6
:1002B000DF91CF9108950E94E203809128010E946E
:1002C000C10490933101809330010197B1F70E94EE
:1002D000410162E070E080E090E029E030E040E041
:1002E00050E00E943205FB017093330160933201AC
:1002F000EE0FFF1FE65FFE4F808161E00E947404F5
:10030000609132017091330188EB91E00E946A03A1
:10031000D2CF809128010E94C10490933101809333
:100320003001019741F488EB91E060E071E00E94B8
:1003300093020E945B0108950E941A040E94ED003E
:100340000E948901FDCF1F920F920FB60F921124C8
:100350002F933F934F935F936F937F938F939F93CD
:10036000AF93BF93EF93FF934091C600E091B40128
:10037000F091B501CF01019660E870E00E946F0531
:100380009C018091B6019091B7012817390739F087
:10039000EC5CFE4F40833093B5012093B401FF9194
:1003A000EF91BF91AF919F918F917F916F915F91ED
:1003B0004F913F912F910F900FBE0F901F90189566
:1003C000AF92BF92CF92DF92EF92FF920F931F9363
:1003D000CF93DF936C017A018B01DC011496AD9011
:1003E000BC901597CB01BA0122E030E040E050E02C
:1003F0000E94A405205C3D4B404F5F4FCA01B901EC
:10040000A80197010E94A405C901DA010197A10979
:10041000B109292F3A2F4B2F552747FD5A950196A1
:10042000A11DB11DE5012883E601EE81FF81815008
:100430008083EA85FB85208141E050E0CA010E847B
:1004400002C0880F991F0A94E2F7282B2083EA85BF
:10045000FB852081CA010F8402C0880F991F0A946E
:10046000E2F7282B2083EA85FB858081088802C07B
:10047000440F551F0A94E2F7842B8083DF91CF91BC
:100480001F910F91FF90EF90DF90CF90BF90AF90B2
:100490000895FC01A085B18521898C9190E0022E00
:1004A00002C0959587950A94E2F780FFF6CF048401
:1004B000F585E02D608308958EE291E09093B90177
:1004C0008093B80184E391E09093BB018093BA01DB
:1004D00085EC90E09093BD018093BC0184EC90E0AA
:1004E0009093BF018093BE0180EC90E09093C10196
:1004F0008093C00181EC90E09093C3018093C2018E
:1005000086EC90E09093C5018093C40184E08093D1
:10051000C60183E08093C70187E08093C80185E02E
:100520008093C90108950F931F93CF93DF938C019C
:10053000EB0109C02196D801ED91FC910190F08169
:10054000E02DC801099568816623A1F7DF91CF915D
:100550001F910F9108952F923F924F925F926F9249
:100560007F928F929F92AF92BF92CF92DF92EF9243
:10057000FF920F931F93DF93CF93CDB7DEB7A09772
:100580000FB6F894DEBF0FBECDBF1C016A017B0120
:10059000411551056105710549F4DC01ED91FC91AE
:1005A0000190F081E02D60E3099554C088249924DE
:1005B0005401422E55246624772401E010E00C0FEC
:1005C0001D1F080D191DC701B601A30192010E944C
:1005D0008205F80160830894811C911CA11CB11C48
:1005E000C701B601A30192010E948205C901DA0187
:1005F0006C017D01C114D104E104F104F1F681E044
:10060000E82EF12CEC0EFD1EE80CF91C3E010894BE
:10061000611C711CD501C4010197A109B1096C01CC
:10062000C818D90814C0F601EE0DFF1D60816A30AC
:1006300010F4605D01C0695CD101ED91FC91019005
:10064000F081E02DC10109950894E108F1086E14CC
:100650007F0449F7A0960FB6F894DEBF0FBECDBF5A
:10066000CF91DF911F910F91FF90EF90DF90CF908E
:10067000BF90AF909F908F907F906F905F904F90C2
:100680003F902F900895EF92FF920F931F93CF9377
:10069000DF93EC017A018B0177FF0FC0E881F981CC
:1006A0000190F081E02D6DE2099510950095F09490
:1006B000E094E11CF11C011D111DCE01B801A70140
:1006C0002AE00E94AB02DF91CF911F910F91FF9022
:1006D000EF900895AB01662757FD6095762F0E9435
:1006E000430308951F920F920FB60F9211242F9378
:1006F0008F939F93AF93BF938091CA019091CB0149
:10070000A091CC01B091CD010196A11DB11D8093A6
:10071000CA019093CB01A093CC01B093CD018091FD
:10072000CE019091CF01A091D001B091D101805024
:10073000904CAF4FBF4F8093CE019093CF01A093C9
:10074000D001B093D10127C08091CE019091CF010B
:10075000A091D001B091D10180589E43A040B040FB
:100760008093CE019093CF01A093D001B093D1019B
:100770008091D2019091D301A091D401B091D50183
:100780000196A11DB11D8093D2019093D301A09336
:10079000D401B093D5018091CE019091CF01A09169
:1007A000D001B091D10181589E43A040B04060F685
:1007B000BF91AF919F918F912F910F900FBE0F908E
:1007C0001F9018958FB7F8942091D2013091D301E2
:1007D0004091D4015091D5018FBFB901CA0108954C
:1007E000EF92FF920F931F937B018C018FB7F894C8
:1007F0004091D2015091D3016091D4017091D50103
:100800008FBF2FB7F8948091D2019091D301A0911E
:10081000D401B091D5012FBF841B950BA60BB70B4C
:10082000E816F9060A071B0760F71F910F91FF9062
:10083000EF900895789484B5826084BD84B581601A
:1008400084BD85B5826085BD85B5816085BDEEE6D8
:10085000F0E0808181608083E1E8F0E08081826067
:100860008083808181608083E0E8F0E08081816026
:100870008083E1EBF0E0808184608083E0EBF0E056
:10088000808181608083EAE7F0E0808184608083FA
:1008900080818260808380818160808380818068A4
:1008A00080831092C1000895282F30E0C901865638
:1008B0009F4FFC0194912A573F4FF901849188235F
:1008C00091F0E82FF0E0EE0FFF1FE859FF4FA591E0
:1008D000B491662329F48C91909589238C93089583
:1008E0008C91892B8C930895482F50E0CA01825532
:1008F0009F4FFC012491CA0186569F4FFC019491A1
:100900004A575F4FFA0134913323D1F1222331F159
:10091000233021F4809180008F7705C0243031F49A
:10092000809180008F7D8093800018C0213019F461
:1009300084B58F7704C0223021F484B58F7D84BDC7
:100940000DC0263021F48091B0008F7705C027308C
:1009500029F48091B0008F7D8093B000E32FF0E008
:10096000EE0FFF1FEE58FF4FA591B491662329F4B7
:100970008C91909589238C9308958C91892B8C93DD
:100980000895682F70E0CB0182559F4FFC012491A0
:10099000CB0186569F4FFC0144916A577F4FFB0164
:1009A0009491992319F420E030E038C0222331F1EA
:1009B000233021F4809180008F7705C0243031F4FA
:1009C000809180008F7D8093800018C0213019F4C1
:1009D00084B58F7704C0223021F484B58F7D84BD27
:1009E0000DC0263021F48091B0008F7705C02730EC
:1009F00029F48091B0008F7D8093B000892F90E022
:100A0000880F991F84589F4FFC01A591B4918C9138
:100A100020E030E0842311F021E030E0C9010895A6
:100A2000EF92FF920F931F937B018C01611571056B
:100A30008105910529F420E030E040E050E00BC052
:100A40000E94DF00A80197010E94A405AC01CB0120
:100A5000DA019C01AD01B901CA011F910F91FF900C
:100A6000EF900895EF92FF920F931F937B018C01FB
:100A7000621773078407950764F4261B370B480B2E
:100A8000590BCA01B9010E941005E60EF71E081F96
:100A9000191FB701C8011F910F91FF90EF900895A2
:100AA000629FD001739FF001829FE00DF11D649F52
:100AB000E00DF11D929FF00D839FF00D749FF00DDE
:100AC000659FF00D9927729FB00DE11DF91F639F7F
:100AD000B00DE11DF91FBD01CF011124089597FB51
:100AE000092E07260AD077FD04D049D006D0002071
:100AF0001AF4709561957F4F0895F6F7909581955A
:100B00009F4F0895A1E21A2EAA1BBB1BFD010DC029
:100B1000AA1FBB1FEE1FFF1FA217B307E407F507AD
:100B200020F0A21BB30BE40BF50B661F771F881F89
:100B3000991F1A9469F760957095809590959B011F
:100B4000AC01BD01CF01089597FB092E05260ED0FB
:100B500057FD04D0D7DF0AD0001C38F450954095DB
:100B6000309521953F4F4F4F5F4F0895F6F7909581
:100B70008095709561957F4F8F4F9F4F0895AA1B69
:100B8000BB1B51E107C0AA1FBB1FA617B70710F078
:100B9000A61BB70B881F991F5A95A9F780959095AA
:100BA000BC01CD010895EE0FFF1F0590F491E02DDB
:100BB00009942F923F924F925F926F927F928F9201
:100BC0009F92AF92BF92CF92DF92EF92FF920F93DC
:100BD0001F93CF93DF93CDB7DEB7CA1BDB0B0FB6E6
:100BE000F894DEBF0FBECDBF09942A8839884888A3
:100BF0005F846E847D848C849B84AA84B984C88439
:100C0000DF80EE80FD800C811B81AA81B981CE0F2F
:100C1000D11D0FB6F894DEBF0FBECDBFED01089514
:040C2000F894FFCF76
:100C2400626567696E0001000000000002000300B5
:100C34000400050006000700080009000A000B0074
:100C44000C000D000E000F0013000000000049020C
:00000001FF
