:100000000C9462000C948A000C948A000C948A0070
:100010000C948A000C948A000C948A000C948A0038
:100020000C948A000C948A000C948A000C948A0028
:100030000C948A000C948A000C948A000C948A0018
:100040000C9442080C948A000C945C060C948A0070
:100050000C948A000C948A000C948A000C948A00F8
:100060000C94DB020C948A00084AD73B3BCE016E0D
:1000700084BCBFFDC12F3D6C74319ABD56833DDAFF
:100080003D00C77F11BED9E4BB4C3E916BAAAABE0E
:10009000000000803F072C7AA5BA6CC590DA3B932C
:1000A00065FC8BBC53F810FD3C5692834DBD879D7B
:1000B0003AB63DCBC9BF5BBE73DA0FC93F00D4016E
:1000C0008E04150711241FBECFEFD4E0DEBFCDBFD5
:1000D00011E0A0E0B1E0E0E2F9E102C005900D928C
:1000E000AA32B107D9F712E0AAE2B1E001C01D922D
:1000F000AB30B107E1F710E0C4ECD0E004C02297C8
:10010000FE010E948A0CCE3BD107C9F70E9455061A
:100110000C948E0C0C9400000F931F93CF93DF93DD
:10012000689F8001699F100D789F100D1124C801F0
:100130000E94A800EC01009729F060E070E0A8019F
:100140000E94AA01CE01DF91CF911F910F910895D6
:10015000CF93DF93BC018230910510F462E070E030
:10016000A0910902B0910A02ED01E0E0F0E040E068
:1001700050E021C0888199818617970769F48A81A8
:100180009B81309719F09383828304C090930A0275
:1001900080930902FE0134C06817790738F44115CD
:1001A000510519F08417950708F4AC01FE018A8106
:1001B0009B819C01E9012097E9F641155105A9F1C0
:1001C000CA01861B970B049708F4BA01E0E0F0E03F
:1001D0002AC08D919C91119784179507F9F46417A3
:1001E000750781F412968D919C911397309719F0B1
:1001F0009383828304C090930A0280930902FD01D5
:1002000032964CC0CA01861B970BFD01E80FF91FFF
:100210006193719302978D939C9340C0FD018281FD
:1002200093819C01D9011097A1F6809107029091CA
:100230000802892B41F48091200190912101909333
:100240000802809307024091220150912301411539
:10025000510541F44DB75EB780911E0190911F0189
:10026000481B590B2091070230910802CA01821BDA
:10027000930B8617970780F0AB014E5F5F4F841793
:10028000950750F0420F531F509308024093070206
:10029000F9016193719302C0E0E0F0E0CF01DF91DA
:1002A000CF910895CF93DF93009709F450C0EC01EC
:1002B00022971B821A82A0910902B0910A0210971C
:1002C00009F140E050E0AC17BD0708F1BB83AA83F9
:1002D000FE0121913191E20FF31FAE17BF0779F4B0
:1002E0008D919C911197280F391F2E5F3F4F3983B5
:1002F000288312968D919C9113979B838A83411535
:10030000510571F4D0930A02C093090220C01296DD
:100310008D919C911397AD01009711F0DC01D3CF23
:10032000FA01D383C28321913191E20FF31FCE17DB
:10033000DF0769F488819981280F391F2E5F3F4FAD
:10034000FA01318320838A819B8193838283DF91A9
:10035000CF910895DC0101C06D9341505040E0F70A
:10036000089581E08093330160932E011092310152
:1003700010923201089580912D0190912C01891BDA
:10038000089590912C0180912D01981710F080E034
:100390000895E0912A01F0912B01E90FF11D808170
:1003A0009F5F90932C0108950895DF93CF930F9250
:1003B000CDB7DEB76983809133018823A9F080919E
:1003C00032018032B0F480913101E0912F01F0913F
:1003D0003001E80FF11D6083809131018F5F8093C0
:1003E00031018093320105C0CE01019661E00E9487
:1003F000BE020F90CF91DF9108950E94D50108951C
:1004000060912F017091300180912E014091320155
:1004100021E00E9479021092310110923201109273
:1004200033010895862F60912A0170912B0141328A
:1004300008F040E20E94430210922C0180932D01AB
:1004400008950E941202089580E290E061E070E059
:100450000E948C0080932A0190932B0110922C0112
:1004600010922D0180E290E061E070E00E948C002B
:1004700080932F019093300110923101109232013C
:100480000E945D040895982F413210F040E02FC083
:10049000809135018823E1F781E0809335018FEF6A
:1004A0008093460110923D0140933E01990F916067
:1004B0009093360185EE8093BC00809135018130A8
:1004C000E1F380913D01841710F440913D01A0912A
:1004D0003B01B0913C0120E030E007C0FB01E20F9E
:1004E000F31F8D9180832F5F3F4F2417B8F3842F24
:1004F00008951F93582F122F413210F081E03CC015
:10050000809135018823E1F782E0809335018FEFF8
:100510008093460110923D0140933E01A0913B0122
:10052000B0913C01FB0102C081918D938E2F861BFF
:100530008417D0F3852F90E0880F991F80933601A0
:1005400085EE8093BC00112321F08091350182302B
:10055000E1F3809146018F3F11F480E00DC080915E
:100560004601803211F482E007C080914601803359
:1005700011F084E001C083E01F910895482F61329B
:1005800010F081E0089580913501843011F082E00F
:10059000089560934201A0913F01B0914001842FE2
:1005A0009C01F90102C081918D938E2F841B8617C7
:1005B000D0F380E008951F920F920FB60F9211248E
:1005C0002F933F934F935F936F937F938F939F935B
:1005D000AF93BF93EF93FF938091B90090E0887F32
:1005E00090708036910509F4E2C081369105CCF512
:1005F0008832910509F47BC089329105B4F48031C9
:10060000910509F46FC0813191053CF4009709F41C
:1006100038C1089709F040C165C08831910509F4D7
:1006200066C0809709F038C17FC08034910509F415
:10063000A3C08134910544F48033910509F47FC04F
:10064000C89709F029C186C08035910509F486C094
:100650008835910509F495C08834910509F01CC1CD
:100660009EC08839910509F404C189399105ECF4DB
:100670008837910509F49BC0893791054CF4883679
:10068000910509F494C08037910509F005C18FC028
:100690008838910509F4EDC08039910509F48DC0C1
:1006A0008038910509F0F8C088C0803B910509F4B5
:1006B000B2C0813B91054CF4803A910509F491C098
:1006C000883A910509F0E8C0A6C0803C910509F47C
:1006D000D4C0883C910509F4D0C0883B910509F04D
:1006E000DBC0B1C0809136018093BB00C0C0909147
:1006F0003D0180913E01981778F490913D01E09181
:100700003B01F0913C01E90FF11D80818093BB001A
:100710009F5F90933D01ABC085ED8093BC008091BD
:10072000BC0084FDFCCFB6C080E28093460185ED1D
:100730008093BC008091BC0084FDFCCFABC080E303
:100740008093460185ED8093BC008091BC0084FDC0
:10075000FCCFA0C088E3809346018FC080913D010B
:100760009091BB00E0913B01F0913C01E80FF11D3D
:1007700090838F5F80933D0190913D0180913E0178
:1007800074C080913D019091BB00E0913B01F091DC
:100790003C01E80FF11D90838F5F80933D0185ED53
:1007A0008093BC008091BC0084FDFCCF73C083E0CB
:1007B00080933501109245015AC0809145018032E5
:1007C00008F057C0809145019091BB00E091430132
:1007D000F0914401E80FF11D90838F5F80934501F4
:1007E00046C080914501803248F480914501E091F6
:1007F0004301F0914401E80FF11D10826091450121
:10080000E0913901F0913A018091430190914401C6
:1008100070E0099532C084E0809335011092410167
:1008200010924201E0913701F091380109958091D1
:100830004201882341F481E080934201E0913F012D
:10084000F0914001108290914101E0913F01F091BF
:100850004001E90FF11D80818093BB009F5F909361
:1008600041019091410180914201981710F485EC6B
:1008700001C085E88093BC000FC085EC8093BC006C
:1008800009C01092460185ED8093BC008091BC00A8
:1008900084FDFCCF10923501FF91EF91BF91AF9194
:1008A0009F918F917F916F915F914F913F912F9188
:1008B0000F900FBE0F901F90189510923501449A1B
:1008C000459AE9EBF0E080818E7F808380818D7F87
:1008D000808388E48093B80085E48093BC0080E244
:1008E00090E061E070E00E948C0080933B01909367
:1008F0003C0180E290E061E070E00E948C00809317
:100900003F019093400180E290E061E070E00E943E
:100910008C0080934301909344010895E7E4F1E053
:100920008EE1DF011D928A95E9F70895FF920F93FA
:100930001F93CF93DF93EC0184E391E062E570E0D5
:1009400046E050E00E942102F7E1FF2E0EC010E0C9
:1009500084E391E00E94C1010C0F1D1F8F25895E69
:10096000F801818388818F5F888384E391E00E940E
:10097000BB010881882359F7063008F465C08C8DC7
:10098000888F8D8D898F8A8D90E02C85821B9109AF
:100990009F878E878B8D90E02D85821B9109998B87
:1009A000888B188289818A8F8A818B8F1986188615
:1009B00003E010E02BC0AD014F5F5F4FCA01880F0D
:1009C000991FFD013996EE0FFF1FEC0FFD1F9801D7
:1009D000082E02C0220F331F0A94E2F702C0359599
:1009E00027958A95E2F7862F90E028233923AC0FCC
:1009F000BD1F13968C9190E0880F991F880F991F47
:100A0000280F391F3183208359874887A885B985E6
:100A10006E81A330B1057CF2862F809581708C8F1A
:100A200080E061FF81E08D8F84E391E062E570E01A
:100A30000E94B10184E391E060E070E00E94FD015A
:100A400084E391E00E940002DF91CF911F910F910A
:100A5000FF900895CF92DF92EF92FF920F931F9332
:100A600064E170E080E090E00E94B20887E491E0E9
:100A70000E949604A9EECA2EA1E0DA2EC60160E01B
:100A800071E00E944C076091590170915A018827CA
:100A900077FD8095982F0E94860A20E030E04FEF86
:100AA00053E40E9424097B018C0160915D017091E7
:100AB0005E01882777FD8095982F0E94860A20E0A6
:100AC00030E046EE53E40E9424099B01AC01C801CA
:100AD000B7010E9498092BED3FE049E450E40E94E1
:100AE000EB0920E030E044E353E40E94590B0E94FC
:100AF000530A9B01AC01C601B9010E943A08C60124
:100B000066E071E00E944C0760915B0170915C01AE
:100B1000882777FD8095982F0E94860A20E030E094
:100B200045EF53E40E94240920E030E042E553E41D
:100B30000E94EB090E9416092BED3FE049E450E4C6
:100B40000E94EB0920E030E044E353E40E94590B9B
:100B50000E94530A9B01AC01C601B9010E943A08E8
:100B6000C6016FE071E00E944C07609159017091DD
:100B70005A01882777FD8095982F0E94860A20E0E9
:100B800030E04FEF53E40E9424090E94530A9B0176
:100B9000AC01C601B9010E943A08C60164E171E0E6
:100BA0000E944C0760915B0170915C01882777FD82
:100BB0008095982F0E94860A20E030E045EF53E4AC
:100BC0000E9424090E94530A9B01AC01C601B9018D
:100BD0000E943A08C60169E171E00E944C076091E9
:100BE0005D0170915E01882777FD8095982F0E94A6
:100BF000860A20E030E046EE53E40E9424090E9479
:100C0000530A9B01AC01C601B9010E943A08C60112
:100C10000E9464071F910F91FF90EF90DF90CF909B
:100C2000089589EE91E040E052EC61E070E00E94AE
:100C3000990684E391E00E942402109247011092E9
:100C40004E0184E391E062E570E00E94B10184E32B
:100C500091E060E470E00E94FD0184E391E060E0D7
:100C600070E00E94FD0184E391E00E94000287E4AD
:100C700091E00E949604E9E5F1E080E090E003C095
:100C800011921192019683309105D4F39093500103
:100C900080934F018CE78093530184E88093540143
:100CA00087E491E00E94960408950E94DC080E9467
:100CB00011060E942A05FDCF1F920F920FB60F92C8
:100CC00011242F933F934F935F936F937F938F9351
:100CD0009F93AF93BF93EF93FF934091C600E09132
:100CE000E501F091E601CF01019660E870E00E9415
:100CF000240C9C018091E7019091E80128173907A5
:100D000039F0EB59FE4F40833093E6012093E50123
:100D1000FF91EF91BF91AF919F918F917F916F91D3
:100D20005F914F913F912F910F900FBE0F901F90A9
:100D30001895AF92BF92CF92DF92EF92FF920F93EE
:100D40001F93CF93DF936C017A018B01DC01149622
:100D5000AD90BC901597CB01BA0122E030E040E0A5
:100D600050E00E94590C205C3D4B404F5F4FCA0140
:100D7000B901A80197010E94590CC901DA01019734
:100D8000A109B109292F3A2F4B2F552747FD5A9515
:100D90000196A11DB11DE5012883E601EE81FF81C9
:100DA00081508083EA85FB85208141E050E0CA01C3
:100DB0000E8402C0880F991F0A94E2F7282B208323
:100DC000EA85FB852081CA010F8402C0880F991F24
:100DD0000A94E2F7282B2083EA85FB858081088826
:100DE00002C0440F551F0A94E2F7842B8083DF91E1
:100DF000CF911F910F91FF90EF90DF90CF90BF9018
:100E0000AF900895FC01A085B18521898C9190E077
:100E1000022E02C0959587950A94E2F780FFF6CFDF
:100E20000484F585E02D6083089588E291E0909335
:100E3000EA018093E90185E691E09093EC018093CB
:100E4000EB0185EC90E09093EE018093ED0184EC52
:100E500090E09093F0018093EF0180EC90E090930C
:100E6000F2018093F10181EC90E09093F401809382
:100E7000F30186EC90E09093F6018093F50184E015
:100E80008093F70183E08093F80187E08093F90174
:100E900085E08093FA0108950F931F93CF93DF931A
:100EA0008C01EB0109C02196D801ED91FC910190D4
:100EB000F081E02DC801099568816623A1F7DF91D3
:100EC000CF911F910F9108950F931F938C01DC0117
:100ED000ED91FC910190F081E02D6DE00995D80134
:100EE000ED91FC910190F081E02DC8016AE0099537
:100EF0001F910F9108952F923F924F925F926F92A0
:100F00007F928F929F92AF92BF92CF92DF92EF9299
:100F1000FF920F931F93DF93CF93CDB7DEB7A097C8
:100F20000FB6F894DEBF0FBECDBF1C016A017B0176
:100F3000411551056105710549F4DC01ED91FC9104
:100F40000190F081E02D60E3099554C08824992434
:100F50005401422E55246624772401E010E00C0F42
:100F60001D1F080D191DC701B601A30192010E94A2
:100F7000370CF80160830894811C911CA11CB11CE2
:100F8000C701B601A30192010E94370CC901DA0121
:100F90006C017D01C114D104E104F104F1F681E09A
:100FA000E82EF12CEC0EFD1EE80CF91C3E01089415
:100FB000611C711CD501C4010197A109B1096C0123
:100FC000C818D90814C0F601EE0DFF1D60816A3003
:100FD00010F4605D01C0695CD101ED91FC9101905C
:100FE000F081E02DC10109950894E108F1086E1423
:100FF0007F0449F7A0960FB6F894DEBF0FBECDBFB1
:10100000CF91DF911F910F91FF90EF90DF90CF90E4
:10101000BF90AF909F908F907F906F905F904F9018
:101020003F902F900895EF92FF920F931F93CF93CD
:10103000DF93EC017A018B0177FF0FC0E881F98122
:101040000190F081E02D6DE2099510950095F094E6
:10105000E094E11CF11C011D111DCE01B801A70196
:101060002AE00E947B07DF91CF911F910F91FF90A3
:10107000EF900895AB01662757FD6095762F0E948B
:10108000130808951F920F920FB60F9211242F93F9
:101090008F939F93AF93BF938091FB019091FC013D
:1010A000A091FD01B091FE010196A11DB11D80939B
:1010B000FB019093FC01A093FD01B093FE01809190
:1010C000FF0190910002A0910102B09102028050B4
:1010D000904CAF4FBF4F8093FF0190930002A093BD
:1010E0000102B093020227C08091FF01909100029B
:1010F000A0910102B091020280589E43A040B040EE
:101100008093FF0190930002A0930102B09302022A
:101110008091030290910402A0910502B091060211
:101120000196A11DB11D8093030290930402A09328
:101130000502B09306028091FF0190910002A091F8
:101140000102B091020281589E43A040B04060F677
:10115000BF91AF919F918F912F910F900FBE0F90E4
:101160001F901895EF92FF920F931F937B018C01B4
:101170008FB7F894409103025091040260910502E8
:10118000709106028FBF2FB7F8948091030290915F
:101190000402A0910502B09106022FBF841B950B9B
:1011A000A60BB70BE816F9060A071B0760F71F9195
:1011B0000F91FF90EF900895789484B5826084BD7C
:1011C00084B5816084BD85B5826085BD85B581604B
:1011D00085BDEEE6F0E0808181608083E1E8F0E0AB
:1011E000808182608083808181608083E0E8F0E09C
:1011F000808181608083E1EBF0E080818460808386
:10120000E0EBF0E0808181608083EAE7F0E08081BC
:10121000846080838081826080838081816080831C
:101220008081806880831092C10008959F939F778A
:10123000A8D10F9000203AF49058A2EA2AED3FE09E
:1012400049E450E413D0F4C15058BB27AA270ED06C
:10125000EFC1E0D130F0E5D120F031F49F3F11F43F
:101260001EF4B0C10EF4E095E7FBA6C1E92FF1D161
:1012700080F3BA17620773078407950718F071F4B3
:101280009EF509C20EF4E0950B2EBA2FA02D0B018E
:10129000B90190010C01CA01A0011124FF27591BBB
:1012A00099F0593F50F4503E68F11A16F040A22FC1
:1012B000232F342F4427585FF3CF46953795279532
:1012C000A795F0405395C9F77EF41F16BA0B620B31
:1012D000730B840BBAF09150A1F0FF0FBB1F661F78
:1012E000771F881FC2F70EC0BA0F621F731F841FBB
:1012F00048F4879577956795B795F7959E3F08F0E1
:10130000B3CF9395880F08F09927EE0F979587959F
:10131000089580D158F080E891E009F49EEF81D1E2
:1013200028F040E851E059F45EEF09C04BC1B3C169
:10133000E92FE0788ED168F3092E052AC1F326172C
:1013400037074807590738F00E2E07F8E02569F0EF
:10135000E025E0640AC0EF6307F8009407FADB01B8
:10136000B9019D01DC01CA01AD01EF9343D060D109
:101370000AD05F91552331F02BED3FE049E450FD59
:1013800049EC63CF0895DF93DD27B92FBF7740E89D
:101390005FE31616170648075B0710F4D92F82D1B2
:1013A0009F938F937F936F9335D2E8E6F0E00DD152
:1013B0003FD12F913F914F915F9187D1DD2349F02C
:1013C0009058A2EA2AED3FE049EC5FE3D0785D2730
:1013D0004DDFDF912DC10CD02BC123D140F01AD1AC
:1013E00030F021F45F3F19F0E7C0511155C1EAC058
:1013F00030D198F39923C9F35523B1F3951B550BBD
:10140000BB27AA2762177307840738F09F5F5F4FD7
:10141000220F331F441FAA1FA9F333D00E2E3AF018
:10142000E0E830D091505040E695001CCAF729D032
:10143000FE2F27D0660F771F881FBB1F2617370781
:101440004807AB07B0E809F0BB0B802DBF01FF27B1
:1014500093585F4F2AF09E3F510568F0ADC01CC104
:101460005F3FECF3983EDCF3869577956795B795EB
:10147000F7959F5FC9F7880F911D9695879597F906
:101480000895E1E0660F771F881FBB1F621773077F
:101490008407BA0720F0621B730B840BBA0BEE1F94
:1014A00088F7E095089504D06894B111F5C00895C7
:1014B000D8D088F09F5790F0B92F9927B751A0F056
:1014C000D1F0660F771F881F991F1AF0BA95C9F7D8
:1014D00012C0B13081F0DFD0B1E00895DCC0672FD9
:1014E000782F8827B85F39F0B93FCCF38695779588
:1014F0006795B395D9F73EF4909580957095619571
:101500007F4F8F4F9F4F0895E89409C097FB3EF49B
:1015100090958095709561957F4F8F4F9F4F992340
:10152000A9F0F92F96E9BB279395F69587957795BE
:101530006795B795F111F8CFFAF4BB0F11F460FF7E
:101540001BC06F5F7F4F8F4F9F4F16C0882311F0D6
:1015500096E911C0772321F09EE8872F762F05C0EA
:10156000662371F096E8862F70E060E02AF09A9585
:10157000660F771F881FDAF7880F9695879597F97A
:101580000895DF93CF931F930F938B01EC01E5E94F
:10159000F0E01BD04DD09801AE018B01EC0160E072
:1015A00070E080E89FE350DEEBD09801AE010F9130
:1015B0001F91CF91DF9189C097F99F6780E870E014
:1015C00060E008959FEF80EC0895DF93CF931F9321
:1015D0000F93FF92EF92DF927B018C01689405C01C
:1015E000DA2EEF0172D0FE01E894A5912591359194
:1015F00045915591AEF3EF0139DEFE019701A80147
:10160000DA9479F7DF90EF90FF900F911F91CF91CF
:10161000DF91089500240A94161617061806090685
:10162000089500240A941216130614060506089558
:10163000092E0394000C11F4882352F0BB0F40F4E0
:10164000BF2B11F460FF04C06F5F7F4F8F4F9F4F20
:10165000089557FD9058440F551F59F05F3F71F0A2
:101660004795880F97FB991F61F09F3F79F0879509
:101670000895121613061406551FF2CF4695F1DF92
:1016800008C0161617061806991FF1CF8695710522
:10169000610508940895E894BB2766277727CB0156
:1016A00097F908959B01AC0160E070E080E89FE34A
:1016B00092CE0BD0BDCFAEDF28F0B3DF18F095236C
:1016C00009F07ACF7FCF1124E7CFC3DFA0F3959F36
:1016D000D1F3950F50E0551F629FF001729FBB2719
:1016E000F00DB11D639FAA27F00DB11DAA1F649FC5
:1016F0006627B00DA11D661F829F2227B00DA11D78
:10170000621F739FB00DA11D621F839FA00D611DFD
:10171000221F749F3327A00D611D231F849F600D1E
:10172000211D822F762F6A2F11249F5750408AF057
:10173000E1F088234AF0EE0FFF1FBB1F661F771FE3
:10174000881F91505040A9F79E3F510570F034CF4B
:10175000A3CF5F3FECF3983EDCF3869577956795D2
:10176000B795F795E7959F5FC1F7FE2B880F911D01
:101770009695879597F9089511F40EF423CF4DC0EF
:1017800070DFD0F39923D9F3CEF39F57550B87FF22
:1017900054D056959795B0E020F4660F771F881FB8
:1017A000BB1F1F930F9300249001A0018001F00143
:1017B000A0E80E0F1F1F0A1E511D601B710B800930
:1017C000B50B48F4600F711F801DB51F0E1B1F0B5A
:1017D0000A0A510907C02E0F3F1F4A1F0E0F1F1F75
:1017E0000A1E511D660F771F881FBB1FA695F79510
:1017F000E795F8F60617170708065B07211D311D48
:10180000411D0F911F91B901842F9158880F969512
:10181000879508959B01AC014CCF9F3F49F09150B3
:1018200028F4869577956795B7959F5F80389F4F89
:10183000880F9695879597F9089591505040660FB7
:10184000771F881FD2F7089597FB092E07260AD025
:1018500077FD04D049D006D000201AF47095619528
:101860007F4F0895F6F7909581959F4F0895A1E2D7
:101870001A2EAA1BBB1BFD010DC0AA1FBB1FEE1F0A
:10188000FF1FA217B307E407F50720F0A21BB30B55
:10189000E40BF50B661F771F881F991F1A9469F7D1
:1018A00060957095809590959B01AC01BD01CF012D
:1018B000089597FB092E05260ED057FD04D0D7DFDB
:1018C0000AD0001C38F450954095309521953F4F33
:1018D0004F4F5F4F0895F6F79095809570956195FD
:1018E0007F4F8F4F9F4F0895AA1BBB1B51E107C02D
:1018F000AA1FBB1FA617B70710F0A61BB70B881FA0
:10190000991F5A95A9F780959095BC01CD0108952E
:10191000EE0FFF1F0590F491E02D0994F894FFCF8E
:10192000526F6C6C20002C20506974636820002C6E
:10193000205820002C205920002C205A2000200064
:0A1940000B02000000000000020787
:00000001FF
