:100000000C9462000C948A000C948A000C948A0070
:100010000C948A000C948A000C948A000C948A0038
:100020000C948A000C948A000C948A000C948A0028
:100030000C948A000C948A000C948A000C948A0018
:100040000C94F0010C948A000C94BF030C948A0069
:100050000C948A000C948A000C948A000C948A00F8
:100060000C948A000C948A000000000024002700F1
:100070002A0000000000250028002B0000000000DE
:1000800023002600290004040404040404040202DA
:100090000202020203030303030301020408102007
:1000A0004080010204081020010204081020000012
:1000B0000007000201000003040600000000000029
:1000C0000000080511241FBECFEFD4E0DEBFCDBF76
:1000D00011E0A0E0B1E0E8E1FCE002C005900D9283
:1000E000A633B107D9F711E0A6E3B1E001C01D9234
:1000F000AC3DB107E1F710E0C4ECD0E004C02297BA
:10010000FE010E940606C23CD107C9F70E94E90120
:100110000C940A060C94000089EC91E040E855E24A
:1001200060E070E00E94FC038091210161E00E9488
:1001300003038091230161E00E9403038091250164
:1001400061E00E9403038091170160E00E940303B5
:100150008091190160E00E94030380911B0160E01F
:100160000E94030380911D0160E00E940303089533
:100170000F931F930E9438023AC0009138011091EA
:100180003901E0913601F0913701EE0FFF1FEB5E70
:10019000FE4F80810E947003000F111F035E1E4FEF
:1001A000F80191838083E0913801F0913901EE0FDD
:1001B000FF1FE35EFE4F80819181892B91F4E091D6
:1001C0003601F0913701EE0FFF1FE15FFE4F808196
:1001D00091818130910509F481E060E00E94230360
:1001E0002DC089EC91E060E071E00E94790580917A
:1001F0003A0190913B01885E93400CF4BECF1EC043
:10020000E0913601F0913701EE0FFF1FE15FFE4FE5
:1002100080810E94AA0261E070E080E090E00E948C
:100220004602E0913801F0913901EE0FFF1FEB5DBE
:10023000FE4F80819181019691838083E091380106
:10024000F0913901EE0FFF1FEB5DFE4F6081718170
:100250006F3F7105A9F2A4F21EC0E0913601F09142
:100260003701EE0FFF1FE15FFE4F80810E94AA025F
:1002700061E070E080E090E00E944602E091380189
:10028000F0913901EE0FFF1FEB5DFE4F80819181F0
:10029000019791838083E0913801F0913901EE0F4D
:1002A000FF1FEB5DFE4F6081718177FFD6CF1F91FD
:1002B0000F910895809119010E947003909320017D
:1002C00080931F0180911B010E9470039093220173
:1002D0008093210180911D010E947003909324015D
:1002E0008093230180911F010E9470039C019093D1
:1002F00026018093250180911F0190912001019793
:1003000029F489EC91E067E071E015C0809121014A
:1003100090912201019729F489EC91E069E071E064
:100320000AC08091230190912401019749F489EC3E
:1003300091E06BE071E00E9479050E94B800089599
:100340002130310509F044C089EC91E06DE071E0A5
:100350000E947905609127017091280116161706F1
:1003600074F08091290190912A01181619063CF029
:1003700080912B0190912C0118161906ACF48091F4
:1003800021010E94AA026091290170912A018091A5
:1003900023010E94AA0260912B0170912C0180918F
:1003A00025010E94AA020895809121010E94AA02BB
:1003B0006091290170912A01809123010E94AA0273
:1003C00060912B0170912C01809125010E94AA025D
:1003D00008950E9470020E948C000E945A01FDCF75
:1003E0001F920F920FB60F9211242F933F938F936A
:1003F0009F93AF93BF938091400190914101A09151
:100400004201B0914301309144010196A11DB11DFB
:10041000232F2D5F2D3720F02D570196A11DB11DE3
:10042000209344018093400190934101A0934201A5
:10043000B093430180913C0190913D01A0913E0118
:10044000B0913F010196A11DB11D80933C01909395
:100450003D01A0933E01B0933F01BF91AF919F91A9
:100460008F913F912F910F900FBE0F901F90189575
:100470008FB7F894209140013091410140914201A1
:10048000509143018FBFB901CA010895EF92FF92C5
:100490000F931F937B018C018FB7F894409140011B
:1004A0005091410160914201709143018FBF2FB77C
:1004B000F8948091400190914101A0914201B09146
:1004C00043012FBF841B950BA60BB70BE816F9064B
:1004D0000A071B0760F71F910F91FF90EF90089597
:1004E000789484B5826084BD84B5816084BD85B50F
:1004F000826085BD85B5816085BDEEE6F0E08081D6
:1005000081608083E1E8F0E0808182608083808187
:1005100081608083E0E8F0E0808181608083E1EBAE
:10052000F0E0808184608083E0EBF0E08081816096
:100530008083EAE7F0E0808184608083808182604C
:100540008083808181608083808180688083109235
:10055000C10008951F93CF93DF93182FEB0161E043
:100560000E940303E12FF0E0E255FF4F84918330B6
:1005700051F480918000806880938000D09389003E
:10058000C09388003CC0843051F480918000806228
:1005900080938000D0938B00C0938A0030C081305C
:1005A00039F4209729F184B5806884BDC7BD27C080
:1005B000823039F42097E1F084B5806284BDC8BDF3
:1005C0001EC0863041F48091B00080688093B000F6
:1005D000C093B30014C0873041F48091B0008062B2
:1005E0008093B000C093B4000AC0C038D1051CF499
:1005F000812F60E002C0812F61E00E942303DF9120
:10060000CF911F910895282F30E0C90186569F4F42
:10061000FC0194912A573F4FF9018491882391F06E
:10062000E82FF0E0EE0FFF1FE859FF4FA591B491BE
:10063000662329F48C91909589238C9308958C914D
:10064000892B8C930895482F50E0CA0182559F4F03
:10065000FC012491CA0186569F4FFC0194914A5790
:100660005F4FFA0134913323D1F1222331F123304A
:1006700021F4809180008F7705C0243031F480917F
:1006800080008F7D8093800018C0213019F484B5DC
:100690008F7704C0223021F484B58F7D84BD0DC0D6
:1006A000263021F48091B0008F7705C0273029F4DF
:1006B0008091B0008F7D8093B000E32FF0E0EE0FCB
:1006C000FF1FEE58FF4FA591B491662329F48C913A
:1006D000909589238C9308958C91892B8C93089500
:1006E000682F70E0CB0182559F4FFC012491CB0114
:1006F00086569F4FFC0144916A577F4FFB019491AE
:10070000992319F420E030E038C0222331F123305E
:1007100021F4809180008F7705C0243031F48091DE
:1007200080008F7D8093800018C0213019F484B53B
:100730008F7704C0223021F484B58F7D84BD0DC035
:10074000263021F48091B0008F7705C0273029F43E
:100750008091B0008F7D8093B000892F90E0880F4A
:10076000991F84589F4FFC01A591B4918C9120E072
:1007700030E0842311F021E030E0C90108951F9298
:100780000F920FB60F9211242F933F934F935F93C5
:100790006F937F938F939F93AF93BF93EF93FF9349
:1007A0004091C600E091C501F091C601CF010196CC
:1007B00060E870E00E94A0059C018091C7019091C3
:1007C000C8012817390739F0EB5BFE4F408330939F
:1007D000C6012093C501FF91EF91BF91AF919F9109
:1007E0008F917F916F915F914F913F912F910F90DA
:1007F0000FBE0F901F9018955F926F927F928F920D
:100800009F92AF92BF92CF92DF92EF92FF920F939F
:100810001F93CF93DF93EC013A014B01413482E403
:1008200058078FE0680780E078070CF07FC060E829
:1008300074E88EE190E0A40193010E94D505215057
:10084000304040405040CA01B90122E030E040E071
:1008500050E00E94D50559016A01A6019501209535
:1008600030954095509594E0220F331F441F551F3B
:100870009A95D1F760E074E284EF90E00E94D5058C
:10088000CA01B9012FEF30E040E050E00E9481053D
:10089000A40193010E94D505C90181509F4F1816EC
:1008A00019061CF4522E5A9403C055245394521A1C
:1008B00060E079E08DE390E0A40193010E94D5050A
:1008C0002150304040405040CA01B90122E030E0A0
:1008D00040E050E00E94D505209530954095509518
:1008E00083E0220F331F441F551F8A95D1F760E024
:1008F00074E284EF90E00E94D505CA01B9012FEFA0
:1009000030E040E050E00E948105A40193010E9484
:10091000D505C90181509F4F181619061CF4822F66
:10092000815002C081E0821B851500F5E885F985BC
:1009300081E090E00A8802C0880F991F0A94E2F7CC
:10094000808360E079E08DE390E0A40193010E9450
:10095000D5052150304040405040CA01B90122E045
:1009600030E040E050E00E94D50504C0E885F985FC
:1009700010829501EC81FD813083EE81FF8120831F
:10098000EA85FB85208141E050E0CA010E8402C067
:10099000880F991F0A94E2F7282B2083EA85FB85AC
:1009A0002081CA010F8402C0880F991F0A94E2F7C0
:1009B000282B2083EA85FB858081088802C0440FAC
:1009C000551F0A94E2F7842B8083DF91CF911F910A
:1009D0000F91FF90EF90DF90CF90BF90AF909F90DE
:1009E0008F907F906F905F900895FC01A085B185F6
:1009F00021898C9190E0022E02C0959587950A94EA
:100A0000E2F780FFF6CF0484F585E02D608308953A
:100A10008FE291E09093CA018093C90185E491E04F
:100A20009093CC018093CB0185EC90E09093CE0124
:100A30008093CD0184EC90E09093D0018093CF011E
:100A400080EC90E09093D2018093D10181EC90E012
:100A50009093D4018093D30186EC90E09093D601DB
:100A60008093D50184E08093D70183E08093D801FF
:100A700087E08093D90185E08093DA0181E080935B
:100A8000DB0108950F931F93CF93DF938C01EB014C
:100A900009C02196D801ED91FC910190F081E02DE3
:100AA000C801099568816623A1F7DF91CF911F9155
:100AB0000F910895EF92FF920F931F93CF93DF93BF
:100AC0008C017B01EA010CC0D7016D917D01D80139
:100AD000ED91FC910190F081E02DC80109952197DD
:100AE000209791F7DF91CF911F910F91FF90EF9099
:100AF0000895DC01ED91FC910280F381E02D0995D0
:100B00000895629FD001739FF001829FE00DF11D57
:100B1000649FE00DF11D929FF00D839FF00D749F77
:100B2000F00D659FF00D9927729FB00DE11DF91F23
:100B3000639FB00DE11DF91FBD01CF011124089580
:100B400097FB092E07260AD077FD04D049D006D09E
:100B500000201AF4709561957F4F0895F6F79095EF
:100B600081959F4F0895A1E21A2EAA1BBB1BFD0180
:100B70000DC0AA1FBB1FEE1FFF1FA217B307E4077C
:100B8000F50720F0A21BB30BE40BF50B661F771FD4
:100B9000881F991F1A9469F76095709580959095B4
:100BA0009B01AC01BD01CF01089597FB092E0526DD
:100BB0000ED057FD04D0D7DF0AD0001C38F4509572
:100BC0004095309521953F4F4F4F5F4F0895F6F771
:100BD00090958095709561957F4F8F4F9F4F0895A9
:100BE000AA1BBB1B51E107C0AA1FBB1FA617B70753
:100BF00010F0A61BB70B881F991F5A95A9F780956F
:100C00009095BC01CD010895EE0FFF1F0590F49162
:080C1000E02D0994F894FFCFD8
:100C1800466164696E6700310032003300340009B0
:100C2800000A000B00020003000400050001000296
:100C3800000300040001000200030000000000F5AA
:060C48000442055A0500FC
:00000001FF
