:100000000C9462000C948A000C948A000C948A0070
:100010000C948A000C948A000C948A000C948C0036
:100020000C948A000C948A000C948A000C948A0028
:100030000C948A000C948A000C948A000C948A0018
:100040000C9425030C948A000C948A000C948A006A
:100050000C948A000C948A000C948A000C948A00F8
:100060000C948A000C948A000000000024002700F1
:100070002A0000000000250028002B0000000000DE
:1000800023002600290004040404040404040202DA
:100090000202020203030303030301020408102007
:1000A0004080010204081020010204081020000012
:1000B0000007000201000003040600000000000029
:1000C00000007E0111241FBECFEFD4E0DEBFCDBF04
:1000D00012E0A0E0B1E0EAE2F9E002C005900D9282
:1000E000A23AB107D9F713E0A2EAB2E001C01D922B
:1000F000A531B107E1F710E0C4ECD0E004C02297CD
:10010000FE010E948F04C23CD107C9F70E941E0362
:100110000C9493040C9400001F920F920FB60F9250
:1001200011242F933F934F935F936F937F938F93FC
:100130009F93AF93BF93EF93FF938091A502882382
:1001400061F4E091A202F091A302309731F081E0D6
:100150008093A50209951092A502FF91EF91BF919E
:10016000AF919F918F917F916F915F914F913F914F
:100170002F910F900FBE0F901F9018959093A30290
:100180008093A202892B21F080917000826003C0CD
:10019000809170008D7F80937000089561157105C6
:1001A0008105910521F461E070E080E090E09B0121
:1001B000AC0174E0220F331F441F551F7A95D1F70D
:1001C000DA01C901B695A79597958795813061E0C9
:1001D000960760E0A60760E0B60720F4682F61503C
:1001E00091E06BC0813068E0960760E0A60760E0B0
:1001F000B60758F4F4E05695479537952795FA9544
:10020000D1F7622F615092E058C0813060E29607CA
:1002100060E0A60760E0B60758F4E6E0569547951B
:1002200037952795EA95D1F7622F615093E045C045
:10023000813060E4960760E0A60760E0B60758F4F6
:1002400077E056954795379527957A95D1F7622FA0
:10025000615094E032C0813060E8960760E0A60704
:1002600060E0B60740F4BB27A52F942F832F682F9B
:10027000615095E022C0813060E0960761E0A607FA
:1002800060E0B60740F4892F9A2FAB2FBB27682F69
:10029000615096E012C081509040A440B04018F0E8
:1002A00097E06FEF0AC08BE05695479537952795F5
:1002B0008A95D1F7622F615097E01092B1001092A9
:1002C000B0001092B2008091B6008F7D8093B6008E
:1002D0006093B3008091A402882311F482E001C0EE
:1002E00082E48093B0009093B10008951092A4022C
:1002F000E0EBF0E080818F7B8083089580911A018C
:1003000090911B019093E8028093E702809106018F
:10031000909107019093EA028093E902809108018D
:10032000909109019093EC028093EB02809114016B
:10033000909115019093EE028093ED0280910C0153
:1003400090910D019093F0028093EF02809116013D
:10035000909117019093F2028093F10280911E0117
:1003600090911F019093F4028093F30280912001F9
:10037000909121019093F6028093F50280911201F1
:10038000909113019093F8028093F70280911C01E1
:1003900090911D019093FA028093F90280911001CF
:1003A000909111019093FC028093FB0280911801BF
:1003B000909119019093FE028093FD0280910201B9
:1003C00090910301909300038093FF0280910E01AE
:1003D00090910F0190930203809301038091040197
:1003E00090910501909304038093030380910A0187
:1003F00090910B01909306038093050308950F934A
:100400001F93CF93DF93E091A602F0E0EE0FFF1F62
:10041000E951FD4F808160E00E9419048091A6029D
:100420008F5F8093A602883011F41092A60207EF26
:1004300012E0C7E0D0E0E091A602F0E053E0EE0F5A
:10044000FF1F5A95E1F7EC0FFD1FE955FD4F808125
:10045000813021F4F801808160E003C0F8018081DF
:1004600061E00E94190421970E5F1F4FFFEFCF3FFD
:10047000DF0709F7E091A602F0E0EE0FFF1FE95158
:10048000FD4F808161E00E941904DF91CF911F919F
:100490000F910895CF92DF92EF92FF920F931F93E7
:1004A000CF93DF93C0E0D0E06C01E6E0CC0CDD1C24
:1004B000EA95E1F77B010027F7FC0095102F29C092
:1004C000818180833896E417F507D1F72F5F3F4F7E
:1004D0002730310539F0F901E955FD4FA90149519E
:1004E0005D4FEECFDE01AC0DBD1DAE5DBE4FEEEA41
:1004F000F2E08C9180831896389682E0EE3EF80701
:10050000C1F7C801B7010E9495032196C830D105F3
:1005100019F020E030E0DFCFDF91CF911F910F91F4
:10052000FF90EF90DF90CF90089580910703909116
:100530000803019666E070E00E946604809307035A
:10054000909308036CE370E00E944A020895CF93F1
:10055000DF93C2E0D1E0888161E00E94F903229636
:1005600081E0C232D807B9F7C7EED2E0888160E0F7
:100570000E941904229682E0C73FD807B9F7C7EF57
:10058000D2E0888160E00E941904229683E0C7309F
:10059000D807B9F720E030E00AC011920196883000
:1005A0009105D9F72F5F3F4F2830310559F0F901F8
:1005B00043E0EE0FFF1F4A95E1F7E955FD4F80E05C
:1005C00090E0EBCF0E94760160ED77E080E090E074
:1005D0000E94CE008FEF91E00E94BE006091070361
:1005E0007091080340E050E023E0660F771F2A95E2
:1005F000E1F70CC081918D932F5F3F4F283031057B
:10060000C9F74F5F5F4F48305105A9F0FA01E60F77
:10061000F71F93E0EE0FFF1F9A95E1F7EE5DFE4F97
:10062000DA0183E0AA0FBB1F8A95E1F7A955BD4FF8
:1006300020E030E0DFCFDF91CF9108950E94BF032B
:100640000E94A7020E949502FDCF1F920F920FB643
:100650000F9211242F938F939F93AF93BF93809109
:10066000090390910A03A0910B03B0910C0301962A
:10067000A11DB11D8093090390930A03A0930B035E
:10068000B0930C0380910D0390910E03A0910F0382
:10069000B09110038050904CAF4FBF4F80930D032B
:1006A00090930E03A0930F03B093100327C0809183
:1006B0000D0390910E03A0910F03B0911003805889
:1006C0009E43A040B04080930D0390930E03A093EF
:1006D0000F03B09310038091110390911203A09126
:1006E0001303B09114030196A11DB11D8093110352
:1006F00090931203A0931303B093140380910D03FE
:1007000090910E03A0910F03B091100381589E4366
:10071000A040B04060F6BF91AF919F918F912F9113
:100720000F900FBE0F901F901895EF92FF920F93AE
:100730001F937B018C018FB7F89440911103509166
:10074000120360911303709114038FBF2FB7F894B5
:100750008091110390911203A0911303B09114039F
:100760002FBF841B950BA60BB70BE816F9060A07DB
:100770001B0760F71F910F91FF90EF9008957894F9
:1007800084B5826084BD84B5816084BD85B5826096
:1007900085BD85B5816085BDEEE6F0E08081816034
:1007A0008083E1E8F0E080818260808380818160E5
:1007B0008083E0E8F0E0808181608083E1EBF0E01D
:1007C000808184608083E0EBF0E0808181608083C1
:1007D000EAE7F0E0808184608083808182608083AA
:1007E0008081816080838081806880831092C100D5
:1007F0000895282F30E0C90186569F4FFC0194913F
:100800002A573F4FF9018491882391F0E82FF0E0B7
:10081000EE0FFF1FE859FF4FA591B491662329F40D
:100820008C91909589238C9308958C91892B8C932E
:100830000895482F50E0CA0182559F4FFC01249132
:10084000CA0186569F4FFC0194914A575F4FFA01A7
:1008500034913323D1F1222331F1233021F48091DB
:1008600080008F7705C0243031F4809180008F7D27
:100870008093800018C0213019F484B58F7704C0AC
:10088000223021F484B58F7D84BD0DC0263021F443
:100890008091B0008F7705C0273029F48091B00097
:1008A0008F7D8093B000E32FF0E0EE0FFF1FEE5836
:1008B000FF4FA591B491662329F48C9190958923DB
:1008C0008C9308958C91892B8C93089597FB092E16
:1008D00007260AD077FD04D00CD006D000201AF4E9
:1008E000709561957F4F0895F6F7909581959F4F8C
:1008F0000895AA1BBB1B51E107C0AA1FBB1FA61767
:10090000B70710F0A61BB70B881F991F5A95A9F7B8
:1009100080959095BC01CD010895EE0FFF1F0590C5
:0A092000F491E02D0994F894FFCF44
:10092A00FFFF05000400030002000E000F00100084
:10093A0011000D000C000B000A0009000800070056
:10094A000600000100000000010000010000000094
:10095A000100000100000000010000010101010185
:10096A000100000100000000010000010000000079
:10097A000100000100000000010000010000000069
:10098A000100000101010101010000010000000055
:10099A000000000100000000000000010101010147
:1009AA00010000010000000000000001000000003A
:1009BA000000000100000000000000010101010127
:1009CA00010000010000000000000001000000001A
:1009DA00000000010000000000000001000000000B
:1009EA0000000001000000000000000100000000FB
:1009FA0000000001000000000000000101010101E7
:100A0A0001000001000000000000000100000000D9
:100A1A0000000001000000000000000100000000CA
:100A2A0000000001000000000000000100000000BA
:100A3A0000000001000000000000000101010101A6
:100A4A000100000000010100000000000100000197
:100A5A000000000100000000010000010000000089
:100A6A000100000100000000010000010000000078
:100A7A000100000001000001000000000001010067
:100A8A00000000000000000000000000000000005C
:100A9A00000000000000000000000000000000004C
:100AAA00000000000000000000000000000000003C
:100ABA00000000000000000000000000000000002C
:020ACA0000002A
:00000001FF
